:020000040800F2
:10000000F0050020010100086B18000875160008B3
:100010006918000811040008411D000800000000D4
:10002000000000000000000000000000711800083F
:1000300013040008000000006D1800087318000881
:100040001B0100081B0100081B0100081B01000820
:10005000830400086F180008150400085304000802
:100060001B0100081B010008630400081B010008B5
:100070001B0100081B0100081B0100081B010008F0
:100080001B0100081B0100081B0100081B010008E0
:100090001B0100081B0100081B0100087304000875
:1000A0001B0100081B0100081B0100081B010008C0
:1000B0000D1900081B010008191900081B01000890
:1000C0001B0100081B0100081B0100081B010008A0
:1000D0001B0100081D1D0008291D0008351D000812
:1000E000250400081B0100081B010008DFF80CD0E4
:1000F00000F07CF900480047391E0008F005002098
:100100000648804706480047FEE7FEE7FEE7FEE7B1
:10011000FEE7FEE7FEE7FEE7FEE7FEE7C51800089C
:10012000ED000008202A04DB203A21FA02F0002129
:10013000704721FA02F3D040C2F1200291400843F7
:1001400019467047D2B201E000F8012B491EFBD2DC
:1001500070470022F6E710B513460A4604461946D2
:10016000FFF7F0FF204610BD2DE9FE4F81EA0304A2
:1001700004F0004421F0004100944FF0000B23F004
:10018000004350EA01045ED052EA03045BD0C3F39B
:100190000A54C1F30A552C44A4F2F3340194A0FB91
:1001A0000254C1F3130141F48011C3F3130343F468
:1001B000801301FB024400FB034E840A970A44EAC1
:1001C000815447EA8357A4FB076802958D0A05FB13
:1001D00007854FEA932C04FB0C542705029D4FEA38
:1001E000065847EA1637B5EB08056EEB070C870E85
:1001F000920E47EA811742EA8312A7FB0201B6EB8F
:100200000B0164EB00042B0D43EA0C335E1844EB46
:100210001C50DA465146E7FB0201C5F313044FEACE
:100220000B3343EA14534FEA0432019C43EA0603BA
:10023000A4F10C040294009CCDE900B400F088F80D
:1002400003B0BDE8F08F00200146F9E70EB5C10FFD
:1002500080EAE0700844CA07002140F233438DE889
:100260000E000A460B4600F073F803B000BD01F023
:10027000004330B421F0004150EA010206D00A0DDB
:10028000A2F56072C1F31301002A02DC30BC002029
:100290007047440F44EAC104C100E01830BC00EBD1
:1002A000C25000F00FB8202A04DB203A00FA02F115
:1002B000002070479140C2F1200320FA03F3194354
:1002C000904070470029A8BF7047401C490008BFF4
:1002D00020F00100704710B4B0FA80FC00FA0CF076
:1002E00050EA010404BF10BC704749B1CCF12004AE
:1002F00021FA04F411FA0CF118BF0121214308433B
:10030000A3EB0C01CB1D4FEA00614FEA102042BF66
:10031000002010BC704700EBC35010440029A4BF5C
:1003200010BC7047401C490008BF20F0010010BC01
:10033000704710B5141E73F1000408DA401C41F137
:10034000000192185B411A4301D120F0010010BD59
:100350002DE9F04D92469B4611B1B1FA81F202E0CF
:10036000B0FA80F220329046FFF79DFF04460F4618
:1003700040EA0A0041EA0B0153465A46084313D0AB
:10038000114653EA010019D0C8F140025046FFF768
:10039000C9FE05460E46504659464246FFF783FFC2
:1003A000084305D0012004E020463946BDE8F08D21
:1003B0000020054346EAE0762C4337430A9863055C
:1003C000E40AA0EB08000022FD0A44EA47540A3080
:1003D00002D500200146E9E7010510196941DDE970
:1003E000084500196941BDE8F04DA2E7064C074DEC
:1003F00006E0E06840F0010394E8070098471034F5
:10040000AC42F6D3FFF776FE00200008202000085B
:10041000FEE7704710B5012000F058F9BDE8104024
:1004200001F09CBD10B54FF4805000F04FF94FF42F
:10043000005000F04BF94FF4804000F047F94FF4C2
:10044000004000F043F901F045FDBDE8104001F027
:1004500063BD10B5022000F039F9BDE8104001F08D
:100460007DBD10B5102000F031F9BDE8104001F05D
:1004700099BD10B5202000F029F9BDE8104001F029
:1004800091BD00F09DB80000064A0021D1610649E7
:100490000A6942F002020A614861086940F04000BE
:1004A00008617047D001002000200240044B002268
:1004B000DA61044A136943F0010313610180704754
:1004C000D00100200020024014480022C168CB0661
:1004D000134904D5CA6942F00202CA611022C368F6
:1004E0005B0705D5CB6943F00103CB6142F0040201
:1004F000C369DB0707D0CB6943F00403CB61C16953
:1005000021F00101C161A2F58071013901D0C26001
:100510007047C16921F00101C161704700200240AC
:10052000D001002010B590F821100024022903D03A
:100530000421816301243DE001680A6822F00E0273
:100540000A6001680A6822F001020A601A4A01681A
:10055000914201D1012121E0174A1432914201D187
:1005600010211BE0144A2832914201D1891515E06F
:10057000114A3C32914201D189140FE00E4A5032A7
:10058000914202D14FF4803108E00B4A643291422B
:1005900002D14FF4801101E04FF08071064A083A11
:1005A0005160012180F82110002180F82010416B5A
:1005B00001B18847204610BD080002407047000086
:1005C0002DE9F0413E4DE8683E4CC0064FF0FF3744
:1005D0004FF0000602D4E868400708D5D4F8088038
:1005E000A760FFF771FF404600F06EF82670E868DC
:1005F000800653D52020E8602078F8B120780128C3
:100600001DD02078022833D06068401E606060688A
:10061000B0B3A068801CA060A06821696269090C61
:1006200041EA0241120C21616261296921F0010154
:1006300029612169626989B2FFF738FF2EE060689D
:10064000401E6060606868B1A068FFF7B7FFA068EF
:1006500000F58060A060296921F002012961FFF79F
:1006600013FF1BE03846A7602670FFF7A7FF15E0D1
:10067000286920F0040028610020FFF79FFF0CE0AC
:10068000FFE72078032817D020780428A06815D029
:10069000B0F10600FFF792FFA760267020780028CF
:1006A00008D1286920F007002861286920F4A050AB
:1006B00028612676BDE8F081A068EBE7801EE9E7B7
:1006C00000200240D001002070477047044910B557
:1006D0000A68024202D00860FFF7F7FF10BD000071
:1006E000140401402DE9F84FDFF8B891002409F116
:1006F000040A0AF1040B23460F270BF1040EC9E08C
:100700000125A5402A40AA427DD1674ED1F804C0F8
:10071000ACEB0608B44532D014DCBCF1030F3AD080
:1007200009DCBCF1000F2AD0BCF1010F1CD0BCF1D8
:10073000020F31D11DE0BCF1110F17D0BCF1120F27
:100740002AD119E0B8F5881F19D006DCB8F5803F2A
:1007500015D0B8F5801F1FD111E0B8F5001F0ED0DD
:10076000B8F5041F18D10AE0CB6815E0CB681B1D53
:1007700012E0CB6808330FE0CB680C330CE08B68D9
:100780002BB1012B4FF0080303D0456104E0042393
:1007900002E0056100E00023FF2A01D8064601E0DF
:1007A00000F104064FEA840501D9A5F12005D6F829
:1007B000008007FA05FC28EA0C0803FA05F548EA68
:1007C0000508C6F800804D68ED0062D5374DAE696A
:1007D00046F00106AE61AD6924F0030605F001059F
:1007E0000095334D06EB050CDCF80850A607360FD4
:1007F00007FA06F825EA0805DFF8B880404503D176
:100800004FF0000817E044E0DFF8AC80404502D12B
:100810004FF001080FE0DFF8A480404502D14FF00F
:10082000020808E0DFF89880404502D14FF0030845
:1008300001E04FF0040808FA06F848EA0508CCF889
:1008400008804D68D9F80060ED034D4601D5164388
:1008500000E096432E604D68DAF80060AD0355461F
:1008600001D5164300E096432E604D68DBF800602A
:10087000ED025D4601D5164300E096432E604D68BB
:10088000DEF80060AD02754601D5164300E09643E0
:100890002E60641C0D682A46E5407FF431AFBDE848
:1008A000F88F000000040140000011100010024009
:1008B0000000014000080140000C01400010014010
:1008C000001401400AB1016170470904FBE7000010
:1008D00001488068704700006C0000200248816871
:1008E00002781144816070476C000020074810B501
:1008F000016841F010010160032000F085F800203C
:1009000000F006F800F024F8002010BD002002409E
:1009100070B50D4D04464FF47A712878B1FBF0F0B4
:100920000A490968B1FBF0F000F0FCFA48B9102C54
:1009300007D200222146501E00F046F800206C60CD
:1009400070BD012070BD00006C0000207800002008
:10095000144808B5816941F001018161816901F0A4
:1009600001010091C16941F08051C161C06900225B
:1009700000F0805000901146042000F025F804207B
:1009800000F014F800221146052000F01DF80520A3
:1009900000F00CF80448416821F0E06141F000717A
:1009A000416008BD0010024000000140002809DB42
:1009B00000F01F02012191404009800000F1E02079
:1009C000C0F8001170470000F0B40E4B1B680C46D5
:1009D000C3F30223C3F10705042D00D90425191D13
:1009E000072901D2002300E0DB1E012606FA05F1EB
:1009F000491E214099409E40761E16403143F0BC6E
:100A000001F09FB90CED00E0064900F0070208680C
:100A10004FF6FF03184040EA0220034A10430860E3
:100A2000704700000CED00E00000FA052DE9F047EA
:100A30000F46050061D0434E306800F00700B84211
:100A400009D2306820F0070038433060306800F089
:100A50000700B84251D128683B4C810712D54007A6
:100A600003D5606840F4E06060602878000703D533
:100A7000606840F4605060606068A96820F0F00031
:100A8000084360602878C00728D06868012810D023
:100A90002168022810D0890700292EDA616821F028
:100AA000030101436160FFF713FF804641F288397B
:100AB0000DE021688903EFE78901EDE7FFF708FF03
:100AC000A0EB0801494502D90320BDE8F087606822
:100AD000696800F00C00B0EB810FEFD1306800F0D6
:100AE0000700B8420BD9306820F007003843306067
:100AF000306800F00700B84201D00120E5E728780F
:100B0000400705D56068E96820F4E060084360604C
:100B10002878000706D56068296920F4605040EA0B
:100B2000C100606000F038F86168084AC1F3031141
:100B3000515CC8400649086006480068FFF7E8FEB7
:100B40000020C2E70020024000100240E81F000819
:100B500078000020700000200448054900684968BA
:100B6000044AC1F30221515CC8407047780000205C
:100B700000100240F81F0008044805490068496851
:100B8000044AC1F3C221515CC8407047780000207C
:100B900000100240F81F000812A185B00FC98DE8AF
:100BA0000F0014A0144A006804905168134801F023
:100BB0000C03042B10D0082B0ED1C1F38343C903BF
:100BC0001DF803000AD5516804AAC1F34041515CE5
:100BD0000A4A5043B0FBF1F005B07047084948435A
:100BE000FAE7000002030405060708090A0B0C0DCA
:100BF0000E0F1010010200000010024000127A00D7
:100C000000093D002DE9F84F040070D02078C04D58
:100C1000C00749D06868C0F38100012807D0686820
:100C2000C0F38100022809D16868C00306D528688E
:100C3000800339D560680028E7D035E06068B0F5FA
:100C4000803F0BD010B1B0F5A02F11D0286820F450
:100C500080302860286820F4802002E0286840F472
:100C600080302860606890B1FFF732FE06460AE0E7
:100C7000286840F480202860F0E700BFFFF728FED6
:100C8000801B642873D828688003F7D50CE0FFF731
:100C90001FFE064605E000BFFFF71AFE801B642812
:100CA000F0D828688003F7D420789A4E80074FF058
:100CB00001094FF0000839D5686810F00C0F07D013
:100CC0006868C0F38100022809D16868C00306D4AF
:100CD0002868800714D52069012808D110E0206910
:100CE000B0B1C6F80090FFF7F3FD074605E00AE152
:100CF000FFF7EEFDC01B0228C4D828688007F7D58F
:100D00002868616920F0F80040EAC10028600DE021
:100D1000C6F80080FFF7DCFD074604E0FFF7D8FDCA
:100D2000C01B022823D828688007F7D42078000742
:100D30002CD57948A169D9B1C0F80090FFF7C8FD5A
:100D4000074604E0FFF7C4FDC01B02280FD8686AFD
:100D50008007F7D571484FF4FA510068B0FBF1F005
:100D6000009000BF0098411E0091FAD20EE080E092
:100D7000C0F80080FFF7ACFD074604E0FFF7A8FDD0
:100D8000C01B022875D8686A8007F7D4207840070E
:100D900060D5E8690027C00008D4E86940F08050B9
:100DA000E861E869012700F0805000905C48016824
:100DB000C90513D40168834641F480710160FFF7CF
:100DC00087FD824606E000BFFFF782FDA0EB0A0028
:100DD00064284ED8DBF80000C005F5D5E06801288E
:100DE0000AD008B1052813D0286A20F00100286233
:100DF000286A20F0040002E0286A40F0010028621E
:100E0000E06841F2883B98B1FFF762FD82460BE053
:100E1000286A40F004002862EEE700BFFFF758FDA3
:100E2000A0EB0A0159455AD8286A8007F6D50CE08C
:100E3000FFF74EFD824605E0FFF74AFDA0EB0A01F1
:100E400059454CD8286A8007F6D41FB1E86920F0CC
:100E50008050E861E06988B36968C1F381010229C3
:100E600044D00228C6F8608004D0FFF731FD044664
:100E700038E034E0FFF72CFD074604E0FFF728FDDB
:100E8000C01B02282BD828688001F7D4206AB0F54F
:100E9000803F05D16868A16820F40030084368608D
:100EA000D4E908010843696821F4741108436860B3
:100EB000C6F86090FFF70CFD044606E025E000BF91
:100EC000FFF706FD001B022809D828688001F7D526
:100ED0001BE000BFFFF7FCFC001B022802D9032027
:100EE000BDE8F88F28688001F4D40EE00128F7D01F
:100EF0006868226A00F48031914204D1616A00F48A
:100F00007010884201D00120EAE70020E8E70000E5
:100F1000001002400000424280044242780000205B
:100F20000070004010B5401EB0F1807F01D3012059
:100F300010BD4FF0E02460610F21601700F001FF49
:100F40000020A06107202061002010BD704770477D
:100F500070B590F83C20012A19D0012400F83C4FCC
:100F60000222427050F83C3C5A689D6822F070069C
:100F70000A684968324325F0800529435A6050F8D1
:100F80003C2C9160447000210170084670BD022025
:100F900070BD10B5040003D094F83D0010B107E017
:100FA000012010BD002084F83C00204600F00CF821
:100FB000022084F83D00211D206800F0B3FC0120D0
:100FC00084F83D00002010BD08B501681448B1F157
:100FD000804F14D0134A914220D1C16941F00401DD
:100FE000C161C069002200F00400009011461E207B
:100FF000FFF7EAFC1E20BDE80840FFF7D7BCC16937
:1010000041F00101C161C069002200F001000090BF
:1010100011461C20FFF7D8FC1C20ECE708BD00009F
:10102000001002400008004070B5044690F83C00F3
:10103000012817D0012584F83C50022084F83D0097
:101040002068826822F0770222F47F42826008687A
:10105000502830D00DDC20284DD005DC98B3102866
:101060003BD148E0022070BD302844D0402834D124
:1010700039E0602828D0702806D0B0F5805F2CD0E9
:10108000B0F5005F29D10AE0CB68D1E901212068E1
:1010900000F07EFC2068816841F0770109E0CB68B0
:1010A000D1E90121206800F073FC2068816841F4D7
:1010B0008041816011E0CA684968206800F01CFD29
:1010C0005021206807E016E0CA684968206800F0EF
:1010D00024FD6021206800F065FC84F83D5000206C
:1010E00084F83C0070BDCA684968206800F004FDBF
:1010F00040212068EFE7226801461046EBE7704781
:1011000070B50446006801694FF00005C9438907BE
:1011100015D4C168C943890711D4E91E01610120B2
:101120002077206880698007204602D0FFF7E7FF1C
:1011300004E000F0BFF8204600F041F92577206870
:101140000169C943490717D4C168C943490713D482
:101150006FF004010161022020772068806910F49B
:10116000407F204602D0FFF7CAFF04E000F0A2F85B
:10117000204600F024F9257720680169C943090752
:1011800016D4C168C943090712D46FF00801016180
:10119000042020772068C0698007204602D0FFF72E
:1011A000AEFF04E000F086F8204600F008F925774D
:1011B00020680169C943C90617D4C168C943C90673
:1011C00013D46FF010010161082020772068C069F6
:1011D00010F4407F204602D0FFF791FF04E000F0BA
:1011E00069F8204600F0EBF8257720680169C943CB
:1011F000C90708D1C168C943C90704D1891E016163
:10120000204600F0DDF820680169C943090609D4C9
:10121000C168C943090605D46FF080010161204609
:10122000FFF794FE20680169C943490609D4C168E3
:10123000C943490605D46FF040010161204600F022
:10124000C0F820680169C94389060BD4C168C94345
:10125000890607D46FF0200101612046BDE8704087
:10126000FFF775BE70BD000000B585B0002100918C
:1012700001910291039100680B49884211D10B48FA
:10128000816941F0080181618069694600F00800C8
:101290000490402000900220019003900448FFF742
:1012A00021FA05B000BD0000000800400010024017
:1012B000000C0140704770B5044690F83C000D46A4
:1012C00001280DD0012684F83C60022084F83D00FE
:1012D00042B1042A18D0082A2AD00C2A4DD139E06C
:1012E000022070BD206800F065FB2068816941F034
:1012F000080181612068816921F004018161206811
:1013000081692A69114311E0206800F07BFB2068A5
:10131000816941F4006181612068816921F4806103
:101320008161206881692A6941EA0221816124E0A2
:10133000206800F093FB2068C16941F00801C16199
:101340002068C16921F00401C1612068C1692A696E
:10135000114311E0206800F0ADFB2068C16941F441
:101360000061C1612068C16921F48061C1612068A8
:10137000C1692A6941EA0221C16184F83D60002007
:1013800084F83C0070BD10B5040003D094F83D0013
:1013900010B107E0012010BD002084F83C00204679
:1013A00000F00CF8022084F83D00211D206800F0B8
:1013B000B9FA012084F83D00002010BD7047704745
:1013C000704770477047000070B5026804461068A7
:1013D000D168536910F00F0F50D003F0010501F4EC
:1013E000907635435DD0C20705D0CA0503D5E26BC0
:1013F00042F00102E263420705D5DA0703D0E26B4F
:1014000042F00202E263820705D5DA0703D0E26BFD
:1014100042F00402E263020705D5DA0703D0E26B6B
:1014200042F00802E263E26B002A33D0800604D562
:10143000880602D5204600F098FB20684069E16BE1
:10144000C0F38010090700D428B3204600F07FFBCA
:101450002068416949061AD5416921F0400141617E
:10146000606BA0B11B494163606BFFF75BF800281C
:1014700010D0606B416BBDE870400847830610D503
:101480008B060ED52046BDE8704000F06EBB2046AE
:10149000FFF798FF70BD2046FFF794FF0020E06340
:1014A00070BD030606D50B0604D52046BDE8704086
:1014B00000F002BC4006F3D54806F1D5D1682046BD
:1014C00021F04001D160202184F8391000F0D1F8DA
:1014D00070BD00003F1B000870B5040004D094F8F4
:1014E0003900002510B106E0012070BD84F83850A5
:1014F000204600F023F8242084F839002068C168D1
:1015000021F40051C160204600F07AFB2068016997
:1015100021F4904101612068416921F02A01416173
:101520002068C16841F40051C160E563202084F85F
:10153000390084F83A00002070BD0000F0B585B095
:10154000002400940194029403940368424F022003
:1015500042490322424D4602BB4225D18B6943F4E6
:1015600080438B618B6903F4804304938B6943F060
:1015700004038B618969039201F004010491010263
:10158000CDE9001069462846FFF7ACF8CDE90064C4
:10159000694628460294FFF7A5F800221146252047
:1015A000FFF712FA252028E02E4FBB4229D1CB6944
:1015B00043F40033CB61CB6903F4003304938B69AC
:1015C00043F004038B618969039201F004010491E3
:1015D0000421CDE9001069462846FFF783F808206A
:1015E000CDE90004694628460294FFF77BF8002203
:1015F00011462620FFF7E8F92620FFF7D7F905B0B6
:10160000F0BD194DAB42FAD1CB6943F48023CB61D5
:10161000CB6903F4802304938B6943F008038B6147
:101620008969124D01F00801CDE90321CDE900607F
:1016300069462846FFF756F8E814CDE900046946E4
:1016400028460294FFF74EF8002211462720FFF7A4
:10165000BBF92720D1E7000000380140001002400C
:10166000000801400044004000480040000C0140D8
:1016700070477047FEE700002DE9F04186B0002476
:1016800041480094019402940394816941F010014F
:101690008161816901F010010491816941F02001AB
:1016A0008161816901F020010491816941F00401A7
:1016B0008161816901F004010491816941F00801AF
:1016C00081618069314F00F008004FF400550490AB
:1016D000002229463846FFF7F5F8DFF8B4800022EB
:1016E00080214046FFF7EEF800950226012503967B
:1016F000CDE9015469463846FEF7F4FF254F032033
:10170000CDE90007694602942348FEF7EBFF4FF24C
:101710003000CDE90007694602944046FEF7E2FF3B
:101720008020CDE90005CDE9024669464046FEF736
:10173000D9FF002211460620FFF746F90620FFF7E1
:1017400035F9002211460720FFF73EF90720FFF781
:101750002DF9002211460A20FFF736F90A20FFF77B
:1017600025F9002211461720FFF72EF91720FFF761
:101770001DF9002211462820FFF726F92820FFF73F
:1017800015F906B0BDE8F0810010024000100140DC
:10179000000C0140000031100008014010B586B077
:1017A00000241148009401940294039404944FF08F
:1017B0008041059401604721C0E9011440F2E731FE
:1017C000C0E903148461FFF7E4FB4FF480500090FC
:1017D00069460548FFF728FC049404A902480594CB
:1017E000FFF7B6FB06B010BD8C00002010B58EB020
:1017F00000240794089409940A940B941C216846C9
:101800000C94FEF7A6FC17481549016041F61F41EC
:10181000C0E90114C721C0E903148461FFF7B9FBD3
:101820004FF48050079007A90E48FFF7FDFB0D48C5
:10183000FFF7A9FD0B940BA90A480C94FFF788FB4E
:101840006020CDE900040294002269460548049412
:10185000FFF731FD0348FFF707FD0EB010BD000094
:1018600000080040CC000020FEE77047704770473A
:101870007047FFF733B830B58FB028216846FEF7C0
:1018800068FC14210AA8FEF764FC01210804CDE9D4
:1018900000100024029402250491CDE907504FF472
:1018A000E01009906846FFF7ADF90F20CDE90A0571
:1018B0006802CDE90C4002210AA80E94FFF7B6F8A1
:1018C0000FB030BD0D48016841F001010160416871
:1018D0000B4A1140416001680A4A114001600168E9
:1018E00021F480210160416821F4FE0141604FF440
:1018F0001F0181600449C003086070470010024066
:101900000000FFF8FFFFF6FE08ED00E00148FFF7DA
:10191000F7BB00008C0000200148FFF7F1BB00007E
:10192000CC000020F0B50268164B174C174D4FF055
:101930008047984205D0B84203D0A04201D0A842C7
:1019400003D122F070064A683243984205D0B8426B
:1019500003D0A04201D0A84203D122F44074CA6847
:1019600022434C6922F08002224302608A68C262EC
:101970000A688262984201D10969016301214161CB
:10198000F0BD0000002C01400004004000080040B1
:1019900010B5846842EA032224F47F440A432243B8
:1019A000826010BD826822F070020A4342F0070193
:1019B0008160704730B5026A22F001020262026A59
:1019C0004368846924F073050C682C4322F00205F7
:1019D0008A682A430A4DA8420BD122F00805CA683A
:1019E00023F440732A434D6922F004021D438B699E
:1019F0002B434360846149684163026230BD00004B
:101A0000002C014030B5026A22F010020262026A24
:101A1000436884690D6824F4E64444EA05248D682B
:101A200022F0200242EA05120B4DA8420ED1CD68E9
:101A300022F0800242EA05124D6923F4406343EA32
:101A400085038D6922F0400243EA85034360846187
:101A500049688163026230BD002C014030B5026AE2
:101A600022F480720262036A4268C46923F400733C
:101A700024F073050C682C438D6843EA05230C4D54
:101A8000A8420ED1CD6823F4006343EA05234D69D3
:101A900022F4405242EA05128D6923F4806342EA3F
:101AA00005124260C4614968C163036230BD000031
:101AB000002C014030B5026A22F480520262046AAE
:101AC0004268C3690D6823F4E64343EA05238D6841
:101AD00024F4005444EA0534064DA84204D14D696B
:101AE00022F4804242EA85124260C361496801647F
:101AF000046230BD002C014010B5036A046A24F072
:101B000001040462846924F0F00444EA021423F01E
:101B10000A020A438461026210BD10B5036A23F011
:101B2000100303628369046A23F4704343EA0232B8
:101B300024F0A00343EA01118261016210BD10B5D7
:101B4000406A0021C185C184FFF73CFC10BD0168DB
:101B5000CA6822F49072CA6001684A6922F00102E0
:101B60004A61202180F83A10704710B590F83A1079
:101B7000222901D0022010BD8168B1F5805F11D00B
:101B80000169002901681FD0496801F07F03816A5B
:101B90004A1C82620B70C18D491E0904090CC18563
:101BA00018D02BE00269816A002A0268526805D0C9
:101BB000D2B20A80816A491C8162ECE7C2F3080252
:101BC0000A80816A891CF7E74A68816A4B1C836234
:101BD0000A70E0E70168CA6822F02002CA60016862
:101BE000CA6822F48072CA6001684A6922F0010260
:101BF0004A61202180F83A10FFF73AFD002010BD1D
:101C00002DE9F041044600680169E26821F4405181
:101C1000114301612169A068084361690843216893
:101C2000CA6841F20C639A430243CA602068416962
:101C3000A26921F44071114341611E492068642565
:101C40003226884202D1FEF797FF01E0FEF784FFBB
:101C500000EBC00101EB001160686FF01807800015
:101C6000B1FBF0F2B2FBF5F2B1FBF0F37A4303EB18
:101C70008202B1FBF0F306EB0212B2FBF5F2B3FB0A
:101C8000F5F302F0F00202EB0312B1FBF0F3B1FB4B
:101C9000F0F0B0FBF5F0784303EB800006EB0010AA
:101CA000B0FBF5F0216800F00F0010448860BDE83B
:101CB000F08100000038014090F83910212901D04E
:101CC000022070478168B1F5805F016A0BD04A1C21
:101CD0000262026809785160C18C491E0904090C2E
:101CE000C1840ED017E009880268C1F30801516071
:101CF00001690029016A02D0491C0162ECE7891CD4
:101D0000FBE70168CA6822F08002CA600068C16807
:101D100041F04001C1600020704700000148FFF71A
:101D200053BB00000C0100200148FFF74DBB000031
:101D30004C0100200148FFF747BB00008C01002048
:101D4000FEE70907090E002804DB00F1E02080F817
:101D50000014704700F00F0000F1E02080F8141D1F
:101D6000704702E008C8121F08C1002AFAD1704764
:101D70007047002001E001C1121F002AFBD170470B
:101D80002DE9F041284C2046256AD0E90932D0E9F6
:101D90000B10052D45D007DC012D03D1C4E90F1030
:101DA000C4E90D32BDE8F0810B2D2DD00F2DF9D1F6
:101DB000606CFEF74BFA1D4E1D4F32463B46FEF758
:101DC000D3F9FEF754FA1B4D2860A06CFEF73EFADB
:101DD00032463B46FEF7C8F9FEF749FA6860E06C08
:101DE000FEF734FA32463B46FEF7BEF9FEF73FFAFD
:101DF000A860206DFEF72AFA32463B46FEF7B4F99A
:101E0000FEF735FAE860CDE7656B5B1B6364A36B97
:101E1000D21AA264E26B891AE164216C401A20652F
:101E2000C0E70020E061BDE700000020EC51B81ED3
:101E300085EB25407C000020FEF758FDFFF71BFDD9
:101E4000FFF71AFCFFF7D2FC1E481D490024016071
:101E50004FF41651C0E901140C25C460C0E90445D3
:101E60008461C461FFF738FB1648174940304FF4CE
:101E7000E1360160C0E90164C460C0E904458461E1
:101E8000C461FFF729FBFFF789FC0E480F4980303A
:101E90000160C0E90164C460C0E904458461C461B3
:101EA000FFF71AFB0A4C1425FEF712FDB0FBF5F103
:101EB000A06105FB11002062FFF762FFF4E700005C
:101EC000003801400C010020004400400048004060
:101ED000000000200E4A10B51068C0F300310D4814
:101EE00001721268C2F34032427243784B408372EF
:101EF000047882EA0404C47202D0436A5B1E43621F
:101F000014B1436A5B1C43620170427010BD000053
:101F1000080C0140000000200E4A10B51068C0F304
:101F200080310D4801731268C2F3C0324273C37826
:101F30004B408373847882EA0404C47302D0836ABA
:101F40005B1E836214B1836A5B1C83628170C27002
:101F500010BD0000080C01400000002030B50F4902
:101F60000868C0F340020E480274096801F00103DA
:101F70004374417992EA01048474417B057981EAD2
:101F80000501C17402D0C46A641EC46211B1C16A81
:101F9000491CC1620271437130BD00000808014054
:101FA000000000200E4A10B51068C0F340110D4823
:101FB00001751268C2F300124275C3794B408375F4
:101FC000847982EA0404C47502D0036B5B1E036348
:101FD00014B1036B5B1C03638171C27110BD0000FF
:101FE000080C01400000002000000000000000007C
:101FF00001020304060708090000000001020304AF
:1020000020200008000000207C000000621D000865
:102010009C2000087C00002074050000721D000850
:1020200000000000000000000000000000000000B0
:1020300000000000000000000000000000000000A0
:102040000000000000000000000000000000000090
:102050000000000000000000000000000000000080
:102060000000000000000000000000000000000070
:102070000000000000000000000000000000000060
:10208000000000000000000000000000010000004F
:0C20900010000000000000000024F4001C
:04000005080000ED02
:00000001FF
