:020000040800F2
:1000000020060020010100082B1E0008351C0008F6
:10001000291E0008410900083D23000800000000D7
:10002000000000000000000000000000311E000879
:1000300043090008000000002D1E0008331E0008C0
:100040001B0100081B0100081B0100081B01000820
:10005000B30900082F1E000845090008830900089D
:100060001B0100081B010008930900081B01000880
:100070001B0100081B0100081B0100081B010008F0
:100080001B0100081B0100081B0100081B010008E0
:100090001B0100081B0100081B010008A309000840
:1000A0001B0100081B0100081B0100081B010008C0
:1000B000CD1E00081B010008D91E00081B01000806
:1000C0001B0100081B0100081B0100081B010008A0
:1000D0001B010008DD220008FD2200081D23000886
:1000E000550900081B0100081B010008DFF80CD0AF
:1000F00000F0E8FB00480047A12D00082006002082
:100100000648804706480047FEE7FEE7FEE7FEE7B1
:10011000FEE7FEE7FEE7FEE7FEE7FEE7851E0008D6
:10012000ED000008202A04DB203A21FA02F0002129
:10013000704721FA02F3D040C2F1200291400843F7
:1001400019467047D2B201E000F8012B491EFBD2DC
:1001500070470022F6E710B513460A4604461946D2
:10016000FFF7F0FF204610BDF0B480EA0102D40F83
:100170004200B2EB410F02D20246084611464A0045
:1001800042D0C30DDDB2C1F3C752AD1A202D35DA0E
:10019000C1F3160141F4000204B15242C5F1200638
:1001A00002FA06F12A411044B3EBD05F23D0C4B168
:1001B000012DA0EBC35009DCF0BC4FF0004202EA75
:1001C000C352DBB200F5000000F09FBA400000F11E
:1001D000807000EBC350A0F1807040EAD1704900FC
:1001E00009E0490841EAC071A0EBC35000F50000E6
:1001F000400800EBC350F0BC00F07EBA614201221F
:1002000002EB4101001BF6E7F0BC704781F00041B2
:10021000AAE780F00040A7E780EA010210B502F0EB
:100220000043400022D04A001FD0010E01EB1261B2
:10023000C0F35600C2F3560240F4000042F400023C
:10024000A0FB022000047F39140400D0401C50EAB7
:10025000124001D44000491EC2B20C0604EBD0107B
:10026000401C4008802A02D003E0002010BD20F08E
:100270000100002900DA0020184310BD30B480EAE4
:10028000010202F0004530F0004221F0004013D09E
:1002900090B1C30DD40DC2F31601C0F31600E41AD9
:1002A00041F4000140F400027D34914201D3641C0A
:1002B00000E04900002C02DA30BC002070474FF407
:1002C00000000023914201D3891A034340084FEAFA
:1002D0004101F7D151B1914202D14FF0004105E007
:1002E00002D24FF0010101E06FF0010103EBC450B5
:1002F000284430BC00F000BA2DE9FE4F804681EA68
:100300000300C00F0C46009021F0004123F000458F
:10031000B8EB0200A94105D24046214690461C4652
:100320000B46024623F00040104347D0270DC7F389
:100330000A00C3F30A510290401A019040286BDA78
:10034000C3F3130040F4801B0098924620B10023B1
:10035000D2EB030A63EB0B0B01985946C0F1400244
:10036000504600F0A8F906460D4650465946019AF7
:1003700000F0B0F910EB08006141002487EA115247
:1003800084EAE7731A4340D0009A62B3019A012AC3
:100390004FEA075215DC001B61EB02014FF00042EF
:1003A00002EA0752CDE90042001C41F580113246B5
:1003B0002B4600F0E7F903B0BDE8F08F4046214638
:1003C000F9E7001B61EB0201001C41F580130018E6
:1003D0005B412018A2F5001747EB030140EAD570F6
:1003E000B6196D4111E06D084FEA360645EAC07551
:1003F0004FEA0752001B61EB0201001C41F580111E
:1004000049084FEA30000019514132462B4603B0EB
:10041000BDE8F04F00F0A7B900980122400000238A
:10042000D0EB020263EBE073009821464FEAE074E0
:10043000B8EB000061EB0401E9E783F000435BE700
:1004400081F0004158E72DE9FE4F81EA030404F0F2
:10045000004421F0004100944FF0000B23F00043D2
:1004600050EA01045ED052EA03045BD0C3F30A549D
:10047000C1F30A552C44A4F2F3340194A0FB0254B6
:10048000C1F3130141F48011C3F3130343F4801348
:1004900001FB024400FB034E840A970A44EA81549C
:1004A00047EA8357A4FB076802958D0A05FB078579
:1004B0004FEA932C04FB0C542705029D4FEA065883
:1004C00047EA1637B5EB08056EEB070C870E920E60
:1004D00047EA811742EA8312A7FB0201B6EB0B0140
:1004E00064EB00042B0D43EA0C335E1844EB1C5004
:1004F000DA465146E7FB0201C5F313044FEA0B331A
:1005000043EA14534FEA0432019C43EA0603A4F180
:100510000C040294009CCDE900B400F033F903B060
:10052000BDE8F08F00200146F9E72DE9F04D81EAA2
:10053000030404F0004B21F0004514464FF0000A7C
:1005400023F0004150EA050220D054EA01021DD0F8
:10055000C5F30A570246C5F31303C1F31300C1F3F1
:100560000A5640F4801543F48013A7EB0608101BCD
:10057000D64608F2FD3873EB050002D308F10108F6
:1005800001E092185B41B8F1000F03DA0020014648
:10059000BDE8F08D00204FF48011064684460EE041
:1005A000171B73EB050705D3121B63EB050306430B
:1005B0004CEA010C49084FEA300092185B4150EABE
:1005C0000107EDD152EA030012D082EA040083EA67
:1005D0000501084305D0101BAB4106D201220023C0
:1005E00006E000224FF0004302E06FF001025310DA
:1005F0001AEB06004CEB085110EB0A0041EB0B0123
:10060000BDE8F04D00F0AFB870B521F000430343F2
:100610000CD0C1F30A550024D5EB040564EB0403A8
:10062000D617AD1AB34102DB0020014670BD201879
:1006300041EB025170BD0EB5C10F80EAE070084475
:10064000CA07002140F233438DE80E000A460B46EC
:1006500000F098F803B000BD00F0004230F0004018
:100660000AD0C10D01F56071C0F3160042EA0151D4
:10067000C20840071143704700200146704701F04F
:10068000004330B421F0004150EA010206D00A0DC7
:10069000A2F56072C1F31301002A02DC30BC002015
:1006A0007047440F44EAC104C100E01830BC00EBBD
:1006B000C25000F021B8202A04DB203A00FA02F1EF
:1006C000002070479140C2F1200320FA03F3194340
:1006D00090407047202A06DBCB17203A41FA02F0FF
:1006E00043EAE07306E041FA02F3D040C2F120028F
:1006F00091400843194670470029A8BF7047401C25
:10070000490008BF20F00100704710B4B0FA80FC27
:1007100000FA0CF050EA010404BF10BC704749B164
:10072000CCF1200421FA04F411FA0CF118BF0121D4
:1007300021430843A3EB0C01CB1D4FEA00614FEAB4
:10074000102042BF002010BC704700EBC350104483
:100750000029A4BF10BC7047401C490008BF20F00E
:10076000010010BC704710B5141E73F1000408DAC4
:10077000401C41F1000192185B411A4301D120F065
:10078000010010BD2DE9F04D92469B4611B1B1FA22
:1007900081F202E0B0FA80F220329046FFF78BFF40
:1007A00004460F4640EA0A0041EA0B0153465A4606
:1007B000084313D0114653EA010019D0C8F1400292
:1007C0005046FFF7AFFC05460E4650465946424696
:1007D000FFF771FF084305D0012004E020463946A9
:1007E000BDE8F08D0020054346EAE0762C43374310
:1007F0000A986305E40AA0EB08000022FD0A44EA17
:1008000047540A3002D500200146E9E701051019D6
:100810006941DDE9084500196941BDE8F04DA2E7ED
:100820002DE9F04D00231A461B1A8A4103DB0020F4
:100830000146BDE8F08DC1F30A52C1F3130141F442
:1008400080154FF0000BD10702D100186D41521EE8
:100850000027044640F2FF11384601EB620A3E468B
:100860008046024600204FF48011FFF75BFCC2195E
:100870007141BB1846EB0100B4EB030C75EB000CA7
:1008800004D3E41A65EB000517460E46241908F157
:1008900001006D4180463428E3DDF91946EB06007E
:1008A000091BA84103D24FF0FF32134601E000229A
:1008B00013461BEB070046EB0A51BDE8F04DFFF76E
:1008C00052BF0000064C074D06E0E06840F001030F
:1008D00094E8070098471034AC42F6D3FFF70AFCBF
:1008E00028320008483200080EB540F23341029128
:1008F0000021CDE900110A460B46FFF743FF03B084
:1009000000BD70B5C1F30A5201F000450024C1F3E7
:10091000130140F2FF3341F480119A4201DA0020C2
:1009200070BD40F233439A42A2F2334203DC52429A
:10093000FFF7F8FB00E090402C43F1D0404270BD3F
:10094000FEE7704710B5012000F058F9BDE81040EF
:1009500002F076BB10B54FF4805000F04FF94FF421
:10096000005000F04BF94FF4804000F047F94FF48D
:10097000004000F043F902F00BFBBDE8104002F02C
:1009800033BB10B5022000F039F9BDE8104002F089
:1009900057BB10B5102000F031F9BDE8104002F04F
:1009A0007BBB10B5202000F029F9BDE8104002F013
:1009B00073BB00F09DB80000064A0021D1610649D2
:1009C0000A6942F002020A614861086940F0400089
:1009D000086170470002002000200240044B002202
:1009E000DA61044A136943F001031361018070471F
:1009F000000200200020024014480022C168CB06FB
:100A0000134904D5CA6942F00202CA611022C368C0
:100A10005B0705D5CB6943F00103CB6142F00402CB
:100A2000C369DB0707D0CB6943F00403CB61C1691D
:100A300021F00101C161A2F58071013901D0C260CC
:100A40007047C16921F00101C16170470020024077
:100A50000002002010B590F821100024022903D0D4
:100A60000421816301243DE001680A6822F00E023E
:100A70000A6001680A6822F001020A601A4A0168E5
:100A8000914201D1012121E0174A1432914201D152
:100A900010211BE0144A2832914201D1891515E03A
:100AA000114A3C32914201D189140FE00E4A503272
:100AB000914202D14FF4803108E00B4A64329142F6
:100AC00002D14FF4801101E04FF08071064A083ADC
:100AD0005160012180F82110002180F82010416B25
:100AE00001B18847204610BD080002407047000051
:100AF0002DE9F0413E4DE8683E4CC0064FF0FF370F
:100B00004FF0000602D4E868400708D5D4F8088002
:100B1000A760FFF771FF404600F06EF82670E868A6
:100B2000800653D52020E8602078F8B1207801288D
:100B30001DD02078022833D06068401E6060606855
:100B4000B0B3A068801CA060A06821696269090C2C
:100B500041EA0241120C21616261296921F001011F
:100B600029612169626989B2FFF738FF2EE0606868
:100B7000401E6060606868B1A068FFF7B7FFA068BA
:100B800000F58060A060296921F002012961FFF76A
:100B900013FF1BE03846A7602670FFF7A7FF15E09C
:100BA000286920F0040028610020FFF79FFF0CE077
:100BB000FFE72078032817D020780428A06815D0F4
:100BC000B0F10600FFF792FFA7602670207800289A
:100BD00008D1286920F007002861286920F4A05076
:100BE00028612676BDE8F081A068EBE7801EE9E782
:100BF000002002400002002070477047044910B5F1
:100C00000A68024202D00860FFF7F7FF10BD00003B
:100C1000140401402DE9F84FDFF8B891002409F1E0
:100C2000040A0AF1040B23460F270BF1040EC9E056
:100C30000125A5402A40AA427DD1674ED1F804C0C3
:100C4000ACEB0608B44532D014DCBCF1030F3AD04B
:100C500009DCBCF1000F2AD0BCF1010F1CD0BCF1A3
:100C6000020F31D11DE0BCF1110F17D0BCF1120FF2
:100C70002AD119E0B8F5881F19D006DCB8F5803FF5
:100C800015D0B8F5801F1FD111E0B8F5001F0ED0A8
:100C9000B8F5041F18D10AE0CB6815E0CB681B1D1E
:100CA00012E0CB6808330FE0CB680C330CE08B68A4
:100CB0002BB1012B4FF0080303D0456104E004235E
:100CC00002E0056100E00023FF2A01D8064601E0AA
:100CD00000F104064FEA840501D9A5F12005D6F8F4
:100CE000008007FA05FC28EA0C0803FA05F548EA33
:100CF0000508C6F800804D68ED0062D5374DAE6935
:100D000046F00106AE61AD6924F0030605F0010569
:100D10000095334D06EB050CDCF80850A607360F9E
:100D200007FA06F825EA0805DFF8B880404503D140
:100D30004FF0000817E044E0DFF8AC80404502D1F6
:100D40004FF001080FE0DFF8A480404502D14FF0DA
:100D5000020808E0DFF89880404502D14FF0030810
:100D600001E04FF0040808FA06F848EA0508CCF854
:100D700008804D68D9F80060ED034D4601D5164353
:100D800000E096432E604D68DAF80060AD035546EA
:100D900001D5164300E096432E604D68DBF80060F5
:100DA000ED025D4601D5164300E096432E604D6886
:100DB000DEF80060AD02754601D5164300E09643AB
:100DC0002E60641C0D682A46E5407FF431AFBDE813
:100DD000F88F0000000401400000111000100240D4
:100DE0000000014000080140000C014000100140DB
:100DF000001401400AB1016170470904FBE70000DB
:100E0000014880687047000068000020024881683F
:100E1000027811448160704768000020074810B5CF
:100E2000016841F010010160032000F085F8002006
:100E300000F006F800F024F8002010BD0020024069
:100E400070B50D4D04464FF47A712878B1FBF0F07F
:100E50000A490968B1FBF0F000F0FCFA48B9102C1F
:100E600007D200222146501E00F046F800206C6098
:100E700070BD012070BD00006800002074000020DB
:100E8000144808B5816941F001018161816901F06F
:100E900001010091C16941F08051C161C069002226
:100EA00000F0805000901146042000F025F8042046
:100EB00000F014F800221146052000F01DF805206E
:100EC00000F00CF80448416821F0E06141F0007145
:100ED000416008BD0010024000000140002809DB0D
:100EE00000F01F02012191404009800000F1E02044
:100EF000C0F8001170470000F0B40E4B1B680C46A0
:100F0000C3F30223C3F10705042D00D90425191DDD
:100F1000072901D2002300E0DB1E012606FA05F1B5
:100F2000491E214099409E40761E16403143F0BC38
:100F300001F019BA0CED00E0064900F0070208685C
:100F40004FF6FF03184040EA0220034A10430860AE
:100F5000704700000CED00E00000FA052DE9F047B5
:100F60000F46050061D0434E306800F00700B842DC
:100F700009D2306820F0070038433060306800F054
:100F80000700B84251D128683B4C810712D5400771
:100F900003D5606840F4E06060602878000703D5FE
:100FA000606840F4605060606068A96820F0F000FC
:100FB000084360602878C00728D06868012810D0EE
:100FC0002168022810D0890700292EDA616821F0F3
:100FD000030101436160FFF713FF804641F2883946
:100FE0000DE021688903EFE78901EDE7FFF708FFCE
:100FF000A0EB0801494502D90320BDE8F0876068ED
:10100000696800F00C00B0EB810FEFD1306800F0A0
:101010000700B8420BD9306820F007003843306031
:10102000306800F00700B84201D00120E5E72878D9
:10103000400705D56068E96820F4E0600843606017
:101040002878000706D56068296920F4605040EAD6
:10105000C100606000F038F86168084AC1F303110C
:10106000515CC8400649086006480068FFF7E8FE82
:101070000020C2E70020024000100240F0300008CB
:10108000740000206C00002004480549006849688D
:10109000044AC1F30221515CC8407047740000202B
:1010A0000010024000310008044805490068496802
:1010B000044AC1F3C221515CC8407047740000204B
:1010C000001002400031000812A185B00FC98DE860
:1010D0000F0014A0144A006804905168134801F0EE
:1010E0000C03042B10D0082B0ED1C1F38343C9038A
:1010F0001DF803000AD5516804AAC1F34041515CB0
:101100000A4A5043B0FBF1F005B070470849484324
:10111000FAE7000002030405060708090A0B0C0D94
:101120000E0F1010010200000010024000127A00A1
:1011300000093D002DE9F84F040070D02078C04D23
:10114000C00749D06868C0F38100012807D06868EB
:10115000C0F38100022809D16868C00306D5286859
:10116000800339D560680028E7D035E06068B0F5C5
:10117000803F0BD010B1B0F5A02F11D0286820F41B
:1011800080302860286820F4802002E0286840F43D
:1011900080302860606890B1FFF732FE06460AE0B2
:1011A000286840F480202860F0E700BFFFF728FEA1
:1011B000801B642873D828688003F7D50CE0FFF7FC
:1011C0001FFE064605E000BFFFF71AFE801B6428DD
:1011D000F0D828688003F7D420789A4E80074FF023
:1011E00001094FF0000839D5686810F00C0F07D0DE
:1011F0006868C0F38100022809D16868C00306D47A
:101200002868800714D52069012808D110E02069DA
:10121000B0B1C6F80090FFF7F3FD074605E00AE11C
:10122000FFF7EEFDC01B0228C4D828688007F7D559
:101230002868616920F0F80040EAC10028600DE0EC
:10124000C6F80080FFF7DCFD074604E0FFF7D8FD95
:10125000C01B022823D828688007F7D4207800070D
:101260002CD57948A169D9B1C0F80090FFF7C8FD25
:10127000074604E0FFF7C4FDC01B02280FD8686AC8
:101280008007F7D571484FF4FA510068B0FBF1F0D0
:10129000009000BF0098411E0091FAD20EE080E05D
:1012A000C0F80080FFF7ACFD074604E0FFF7A8FD9B
:1012B000C01B022875D8686A8007F7D420784007D9
:1012C00060D5E8690027C00008D4E86940F0805084
:1012D000E861E869012700F0805000905C480168EF
:1012E000C90513D40168834641F480710160FFF79A
:1012F00087FD824606E000BFFFF782FDA0EB0A00F3
:1013000064284ED8DBF80000C005F5D5E068012858
:101310000AD008B1052813D0286A20F001002862FD
:10132000286A20F0040002E0286A40F001002862E8
:10133000E06841F2883B98B1FFF762FD82460BE01E
:10134000286A40F004002862EEE700BFFFF758FD6E
:10135000A0EB0A0159455AD8286A8007F6D50CE057
:10136000FFF74EFD824605E0FFF74AFDA0EB0A01BC
:1013700059454CD8286A8007F6D41FB1E86920F097
:101380008050E861E06988B36968C1F3810102298E
:1013900044D00228C6F8608004D0FFF731FD04462F
:1013A00038E034E0FFF72CFD074604E0FFF728FDA6
:1013B000C01B02282BD828688001F7D4206AB0F51A
:1013C000803F05D16868A16820F400300843686058
:1013D000D4E908010843696821F47411084368607E
:1013E000C6F86090FFF70CFD044606E025E000BF5C
:1013F000FFF706FD001B022809D828688001F7D5F1
:101400001BE000BFFFF7FCFC001B022802D90320F1
:10141000BDE8F88F28688001F4D40EE00128F7D0E9
:101420006868226A00F48031914204D1616A00F454
:101430007010884201D00120EAE70020E8E70000B0
:10144000001002400000424280044242740000202A
:101450000070004010B5401EB0F1807F01D3012024
:1014600010BD4FF0E02460610F21601700F07BFF9A
:101470000020A06107202061002010BD7047704748
:1014800070B590F83C20012A19D0012400F83C4F97
:101490000222427050F83C3C5A689D6822F0700667
:1014A0000A684968324325F0800529435A6050F89C
:1014B0003C2C9160447000210170084670BD0220F0
:1014C00070BD10B5040003D094F83D0010B107E0E2
:1014D000012010BD002084F83C00204600F00CF8EC
:1014E000022084F83D00211D206800F0FBFC012053
:1014F00084F83D00002010BD08B501681448B1F122
:10150000804F14D0134A914220D1C16941F00401A7
:10151000C161C069002200F00400009011461E2045
:10152000FFF7EAFC1E20BDE80840FFF7D7BCC16901
:1015300041F00101C161C069002200F0010000908A
:1015400011461C20FFF7D8FC1C20ECE708BD00006A
:10155000001002400008004070B5044690F83C00BE
:10156000012817D0012584F83C50022084F83D0062
:101570002068826822F0770222F47F428260086845
:10158000502830D00DDC20284DD005DC98B3102831
:101590003BD148E0022070BD302844D0402834D1EF
:1015A00039E0602828D0702806D0B0F5805F2CD0B4
:1015B000B0F5005F29D10AE0CB68D1E901212068AC
:1015C00000F0C6FC2068816841F0770109E0CB6833
:1015D000D1E90121206800F0BBFC2068816841F45A
:1015E0008041816011E0CA684968206800F064FDAC
:1015F0005021206807E016E0CA684968206800F0BA
:101600006CFD6021206800F0ADFC84F83D500020A6
:1016100084F83C0070BDCA684968206800F04CFD41
:1016200040212068EFE7226801461046EBE770474B
:1016300070B50446006801694FF00005C943890789
:1016400015D4C168C943890711D4E91E016101207D
:101650002077206880698007204602D0FFF7E7FFE7
:1016600004E000F0BFF8204600F041F9257720683B
:101670000169C943490717D4C168C943490713D44D
:101680006FF004010161022020772068806910F466
:10169000407F204602D0FFF7CAFF04E000F0A2F826
:1016A000204600F024F9257720680169C94309071D
:1016B00016D4C168C943090712D46FF0080101614B
:1016C000042020772068C0698007204602D0FFF7F9
:1016D000AEFF04E000F086F8204600F008F9257718
:1016E00020680169C943C90617D4C168C943C9063E
:1016F00013D46FF010010161082020772068C069C1
:1017000010F4407F204602D0FFF791FF04E000F084
:1017100069F8204600F0EBF8257720680169C94395
:10172000C90708D1C168C943C90704D1891E01612D
:10173000204600F0DDF820680169C943090609D494
:10174000C168C943090605D46FF0800101612046D4
:10175000FFF794FE20680169C943490609D4C168AE
:10176000C943490605D46FF040010161204600F0ED
:10177000C0F820680169C94389060BD4C168C94310
:10178000890607D46FF0200101612046BDE8704052
:10179000FFF775BE70BD000000B585B00021009157
:1017A00001910291039100680B49884211D10B48C5
:1017B000816941F0080181618069694600F0080093
:1017C0000490402000900220019003900448FFF70D
:1017D00021FA05B000BD00000008004000100240E2
:1017E000000C0140704770B5044690F83C000D466F
:1017F00001280DD0012684F83C60022084F83D00C9
:1018000042B1042A18D0082A2AD00C2A4DD139E036
:10181000022070BD206800F0ADFB2068816941F0B6
:10182000080181612068816921F0040181612068DB
:1018300081692A69114311E0206800F0C3FB206828
:10184000816941F4006181612068816921F48061CE
:101850008161206881692A6941EA0221816124E06D
:10186000206800F0DBFB2068C16941F00801C1611C
:101870002068C16921F00401C1612068C1692A6939
:10188000114311E0206800F0F5FB2068C16941F4C4
:101890000061C1612068C16921F48061C161206873
:1018A000C1692A6941EA0221C16184F83D600020D2
:1018B00084F83C0070BD10B5040003D094F83D00DE
:1018C00010B107E0012010BD002084F83C00204644
:1018D00000F00CF8022084F83D00211D206800F083
:1018E00001FB012084F83D00002010BD70477047C7
:1018F000704770477047000070B502680446106872
:10190000D168536910F00F0F50D003F0010501F4B6
:10191000907635435DD0C20705D0CA0503D5E26B8A
:1019200042F00102E263420705D5DA0703D0E26B19
:1019300042F00202E263820705D5DA0703D0E26BC8
:1019400042F00402E263020705D5DA0703D0E26B36
:1019500042F00802E263E26B002A33D0800604D52D
:10196000880602D5204600F0E0FB20684069E16B64
:10197000C0F38010090700D428B3204600F0C7FB4D
:101980002068416949061AD5416921F04001416149
:10199000606BA0B11B494163606BFFF75BF80028E7
:1019A00010D0606B416BBDE870400847830610D5CE
:1019B0008B060ED52046BDE8704000F0B6BB204631
:1019C000FFF798FF70BD2046FFF794FF0020E0630B
:1019D00070BD030606D50B0604D52046BDE8704051
:1019E00000F04ABC4006F3D54806F1D5D168204640
:1019F00021F04001D160202184F8391000F019F95C
:101A000070BD0000FF20000870B5040004D094F8F9
:101A10003900002510B106E0012070BD84F838506F
:101A2000204600F023F8242084F839002068C1689B
:101A300021F40051C160204600F0C2FB206801691A
:101A400021F4904101612068416921F02A0141613E
:101A50002068C16841F40051C160E563202084F82A
:101A6000390084F83A00002070BD0000F0B585B060
:101A7000002400940194029403940368424F0220CE
:101A800042490322424D4602BB4225D18B6943F4B1
:101A900080438B618B6903F4804304938B6943F02B
:101AA00004038B618969039201F00401049101022E
:101AB000CDE9001069462846FFF7ACF8CDE900648F
:101AC000694628460294FFF7A5F800221146252012
:101AD000FFF712FA252028E02E4FBB4229D1CB690F
:101AE00043F40033CB61CB6903F4003304938B6977
:101AF00043F004038B618969039201F004010491AE
:101B00000421CDE9001069462846FFF783F8082034
:101B1000CDE90004694628460294FFF77BF80022CD
:101B200011462620FFF7E8F92620FFF7D7F905B080
:101B3000F0BD194DAB42FAD1CB6943F48023CB61A0
:101B4000CB6903F4802304938B6943F008038B6112
:101B50008969124D01F00801CDE90321CDE900604A
:101B600069462846FFF756F8E814CDE900046946AF
:101B700028460294FFF74EF8002211462720FFF76F
:101B8000BBF92720D1E700000038014000100240D7
:101B9000000801400044004000480040000C0140A3
:101BA00090F83A30202B22D1F9B1F2B190F83830C8
:101BB000012B1CD081628285C2850021C163222253
:101BC00080F83A2080F838100168CA6842F48072C0
:101BD000CA6001684A6942F001024A610068C1684E
:101BE00041F02001C16000207047012070470220B1
:101BF0007047704790F83930202B18D1A9B1A2B1A5
:101C000090F83830012B12D001628284C284002106
:101C1000C163212280F8392080F838100068C1683B
:101C200041F08001C1600020704701207047022010
:101C300070477047FEE700002DE9F04186B00024B0
:101C400041480094019402940394816941F0100189
:101C50008161816901F010010491816941F02001E5
:101C60008161816901F020010491816941F00401E1
:101C70008161816901F004010491816941F00801E9
:101C800081618069314F00F008004FF400550490E5
:101C9000002229463846FFF7ADF8DFF8B48000226D
:101CA00080214046FFF7A6F80095022601250396FD
:101CB000CDE9015469463846FEF7ACFF254F0320B5
:101CC000CDE90007694602942348FEF7A3FF4FF2CF
:101CD0003000CDE90007694602944046FEF79AFFBE
:101CE0008020CDE90005CDE9024669464046FEF771
:101CF00091FF002211460620FFF7FEF80620FFF7AD
:101D0000EDF8002211460720FFF7F6F80720FFF74D
:101D1000E5F8002211460A20FFF7EEF80A20FFF747
:101D2000DDF8002211461720FFF7E6F81720FFF72D
:101D3000D5F8002211462820FFF7DEF82820FFF70B
:101D4000CDF806B0BDE8F08100100240001001405F
:101D5000000C0140000031100008014010B586B0B1
:101D600000241148009401940294039404944FF0C9
:101D70008041059401604721C0E9011440F2E73138
:101D8000C0E903148461FFF79CFB4FF4805000907E
:101D900069460548FFF7E0FB049404A9024805944E
:101DA000FFF76EFB06B010BDBC00002010B58EB072
:101DB00000240794089409940A940B941C21684603
:101DC0000C94FEF7C6F917481549016041F61F410A
:101DD000C0E90114C721C0E903148461FFF771FB56
:101DE0004FF48050079007A90E48FFF7B5FB0D4848
:101DF000FFF761FD0B940BA90A480C94FFF740FB19
:101E00006020CDE90004029400226946054804944C
:101E1000FFF7E9FC0348FFF7BFFC0EB010BD000060
:101E200000080040FC000020FEE770477047704744
:101E30007047FEF7EBBF30B58FB028216846FEF73C
:101E400088F914210AA8FEF784F901210804CDE9D4
:101E500000100024029402250491CDE907504FF4AC
:101E6000E01009906846FFF765F90F20CDE90A05F3
:101E70006802CDE90C4002210AA80E94FFF76EF823
:101E80000FB030BD0D48016841F0010101604168AB
:101E90000B4A1140416001680A4A11400160016823
:101EA00021F480210160416821F4FE0141604FF47A
:101EB0001F0181600449C0030860704700100240A0
:101EC0000000FFF8FFFFF6FE08ED00E00148FFF715
:101ED000AFBB0000BC0000200148FFF7A9BB000019
:101EE000FC000020F0B50268164B174C174D4FF060
:101EF0008047984205D0B84203D0A04201D0A84202
:101F000003D122F070064A683243984205D0B842A5
:101F100003D0A04201D0A84203D122F44074CA6881
:101F200022434C6922F08002224302608A68C26226
:101F30000A688262984201D1096901630121416105
:101F4000F0BD0000002C01400004004000080040EB
:101F500010B5846842EA032224F47F440A432243F2
:101F6000826010BD826822F070020A4342F00701CD
:101F70008160704730B5026A22F001020262026A93
:101F80004368846924F073050C682C4322F0020531
:101F90008A682A430A4DA8420BD122F00805CA6874
:101FA00023F440732A434D6922F004021D438B69D8
:101FB0002B434360846149684163026230BD000085
:101FC000002C014030B5026A22F010020262026A5F
:101FD000436884690D6824F4E64444EA05248D6866
:101FE00022F0200242EA05120B4DA8420ED1CD6824
:101FF00022F0800242EA05124D6923F4406343EA6D
:1020000085038D6922F0400243EA850343608461C1
:1020100049688163026230BD002C014030B5026A1C
:1020200022F480720262036A4268C46923F4007376
:1020300024F073050C682C438D6843EA05230C4D8E
:10204000A8420ED1CD6823F4006343EA05234D690D
:1020500022F4405242EA05128D6923F4806342EA79
:1020600005124260C4614968C163036230BD00006B
:10207000002C014030B5026A22F480520262046AE8
:102080004268C3690D6823F4E64343EA05238D687B
:1020900024F4005444EA0534064DA84204D14D69A5
:1020A00022F4804242EA85124260C36149680164B9
:1020B000046230BD002C014010B5036A046A24F0AC
:1020C00001040462846924F0F00444EA021423F059
:1020D0000A020A438461026210BD10B5036A23F04C
:1020E000100303628369046A23F4704343EA0232F3
:1020F00024F0A00343EA01118261016210BD10B512
:10210000406A0021C185C184FFF7F4FB10BD01685E
:10211000CA6822F49072CA6001684A6922F001021A
:102120004A61202180F83A10704710B590F83A10B3
:10213000222901D0022010BD8168B1F5805F11D045
:102140000169002901681FD0496801F07F03816A95
:102150004A1C82620B70C18D491E0904090CC1859D
:1021600018D02BE00269816A002A0268526805D003
:10217000D2B20A80816A491C8162ECE7C2F308028C
:102180000A80816A891CF7E74A68816A4B1C83626E
:102190000A70E0E70168CA6822F02002CA6001689C
:1021A000CA6822F48072CA6001684A6922F001029A
:1021B0004A61202180F83A10FFF71BFD002010BD76
:1021C0002DE9F041044600680169E26821F44051BC
:1021D000114301612169A0680843616908432168CE
:1021E000CA6841F20C639A430243CA60206841699D
:1021F000A26921F44071114341611E4920686425A0
:102200003226884202D1FEF74FFF01E0FEF73CFF85
:1022100000EBC00101EB001160686FF0180780004F
:10222000B1FBF0F2B2FBF5F2B1FBF0F37A4303EB52
:102230008202B1FBF0F306EB0212B2FBF5F2B3FB44
:10224000F5F302F0F00202EB0312B1FBF0F3B1FB85
:10225000F0F0B0FBF5F0784303EB800006EB0010E4
:10226000B0FBF5F0216800F00F0010448860BDE875
:10227000F08100000038014090F83910212901D088
:10228000022070478168B1F5805F016A0BD04A1C5B
:102290000262026809785160C18C491E0904090C68
:1022A000C1840ED017E009880268C1F308015160AB
:1022B00001690029016A02D0491C0162ECE7891C0E
:1022C000FBE70168CA6822F08002CA600068C16842
:1022D00041F04001C16000207047000010B5054882
:1022E000FFF70AFBBDE81040012203490148FFF750
:1022F00057BC00003C0100201900002010B5054823
:10230000FFF7FAFABDE81040012203490148FFF740
:1023100047BC00007C0100201A00002010B50548D1
:10232000FFF7EAFA03480122BDE8104002494030B5
:10233000FFF736BC7C0100201B000020FEE74900AF
:1023400050EAC12018BF04204A0D18BF40F0010018
:1023500040F2FF72B2EB515F08BF40F0020001286B
:1023600008BF052070470907090E002804DB00F1AB
:10237000E02080F80014704700F00F0000F1E0202A
:1023800080F8141D704700002DE9F74F144694B0F3
:102390000021C4E902111599079121F00045C949AE
:1023A0008D4206DC1599C4E9000117B00020BDE894
:1023B000F08FC549DFF814A3A9423CDD0799C44E4C
:1023C0000029C44FC44A1599534619DDFEF735F864
:1023D000554506D0C14AC24BFEF72FF8C4E90001AB
:1023E0000AE04FF0D352BE4BFEF727F832463B4689
:1023F000FEF723F8C4E9000117B00120BDE8F08F13
:10240000FDF77AFF554506D0B44AB54BFDF774FF8A
:10241000C4E900010AE04FF0D352B14BFDF76CFF65
:1024200032463B46FDF768FFC4E9000117B04FF0A4
:10243000FF30BDE8F08FAB49A942159978DB21F058
:10244000004183468846A84AA84BFDF7FCFF0022BE
:10245000A74BFDF751FFFEF754FA0990FEF7EBF892
:1024600006460F469C4A5346FDF7EDFF43465A4643
:10247000FDF7E6FF80468A46984A994B3046394632
:10248000FDF7E1FF2A0D01250B9242465346FDF769
:10249000D7FF032DC4E9000139D00B98C1F30A51CD
:1024A000401A05EB45111139814230DA9148C34693
:1024B000784400EB0510CDF80CA00C90D0E9002377
:1024C00030463946FDF7BFFF02460B4604910690A1
:1024D00058460399FDF7B1FF80468A4602460B46EF
:1024E00058460399FDF7A9FF049B069AFDF7A5FF3F
:1024F00083460C9803913946D0E902233046FDF714
:10250000A2FF5A46039BFDF798FF6D1CBDE7079895
:102510000028A2BF099817B0BDE8F08F616881F06C
:1025200000416160099817B04042BDE8F08FFFE7B5
:1025300084461598C1F31301C0F30A50A0F2F53098
:102540004FEA601800F01F06C6F12000139000202B
:102550000690079041F4801E05206D4676B1664ACC
:1025600008EB00017A4452F8213002EB8101B340BC
:102570004A68139922FA01F1194305E05F4908EB13
:102580000002794451F82210A1FB0E27A1FB0C1385
:102590001A449A4234BF0123002303EB070A05EBD8
:1025A0008003D3E901B70F448F4234BF01210021DA
:1025B00093448B4411B1934502D903E0934501D272
:1025C000012100E00021C3E901B7514445F8201082
:1025D000011EA0F10100C1DC0298059F00F100502E
:1025E000800F12900298DDE903568000FEF723F871
:1025F000834628460D91FEF777F96FF01D02FEF72E
:1026000003F8CDE90E013046FEF76EF96FF03D029A
:10261000FDF7FAFF80468A463846FEF765F96FF007
:102620005D02FDF7F1FF0746424653461191FDF763
:1026300063FEDDE90E23FDF75FFE5A460D9BFDF7B5
:102640005BFE00250E465A4628460D9BFDF7F5FE1B
:10265000DDE90E23FDF7F1FE42465346FDF7EDFEA0
:102660003A46119BFDF7ECFEDFF898A0244A53464A
:10267000FDF7E9FE07468846234A244B31462846A3
:10268000FDF7E1FE3A464346FDF736FE074688462B
:102690004FF0A842534631462846FDF7D4FE3A464D
:1026A0004346FDF729FE159A12F0004F04D0129A06
:1026B00081F0004152421292C4E90001129817B011
:1026C000BDE8F08FFB21E93F7CD90240FB21F93FB7
:1026D0007370032E8A19A33B000040543163621AC1
:1026E00061B4D03DFB21394183C8C96D305FE43FFF
:1026F0000000E03F840C0000000C0000E20B000032
:10270000182D4454FB21F93D3326A611460B113CEC
:102710002DE9FF4D21F0004807460C46B8F1795FDE
:1027200008DAFEF7EEF8002801BF0020324904B0B5
:10273000BDE8F08D3A46234610461946FDF783FE64
:10274000054602462D480E460B460621784400F009
:102750005DF82A463346FDF776FEDDE90223824620
:102760008B4638462146FDF76EFE04460F4652461C
:102770005B4628463146FDF766FE22463B46FDF79E
:102780005CFE07468A464FF0FF3228463146FDF789
:102790003BFF1B4A90450ADA3A465346FDF74DFE89
:1027A00004B00022BDE8F04D134BFDF749BE154AB9
:1027B0004245A8BFA8F500154FF00004B8BF124D60
:1027C00022462B46FDF739FE0646884622462B4612
:1027D00000200949FDF731FE04460D463A465346AE
:1027E00030464146FDF729FE04B022462B46BDE89F
:1027F000F04DFDF725BE00000000F03FB8090000D5
:102800003333D33F0000E93F0000D23F2DE9F041D0
:102810004F1E00EBC7010446D1E9000115461E46D4
:1028200037F006020DD02A463346FDF70CFE7F1E18
:1028300004EBC703D3E90023FDF75EFD37F0060282
:10284000F1D1022F25D0042F13D0062F18BFBDE8D9
:10285000F0812A463346FDF7F6FDD4E90A23FDF759
:102860004BFD2A463346FDF7EEFDD4E90823FDF77C
:1028700043FD2A463346FDF7E6FDD4E90623FDF77E
:102880003BFD2A463346FDF7DEFDD4E90423FDF780
:1028900033FD2A463346FDF7D6FDD4E90223FDF782
:1028A0002BFD2A463346FDF7CEFDD4E90023BDE8D3
:1028B000F041FDF721BD00002DE9FF4D054621F057
:1028C000004084B00C46B0F1795F0BDA2846FFF780
:1028D00036FD042808BF00F06FF8284608B02146EE
:1028E000BDE8F08D2A460B461046FDF7ACFD0646C6
:1028F0000F462A462346FDF7A6FD804626488A460F
:1029000032463B4605217844FFF780FF8346109806
:10291000029160B3214A224B40465146FDF793FD98
:10292000CDE900015A4640465146029BFDF78BFD1A
:1029300082468846DDE906014FF0FF32FDF764FE6E
:1029400052464346FDF779FD32463B46FDF77BFD97
:10295000DDE90623FDF771FDDDE90023FDF76DFDDF
:1029600008B02A462346BDE8F04DFDF769BD0B4689
:102970005A4630463946FDF766FD084A084BFDF7D2
:10298000BBFC42465346FDF75EFD08B02A4623468F
:10299000BDE8F04DFDF7B0BCF608000049555555AF
:1029A0005555C5BF0122FDF72FBE00221346104624
:1029B0001146FDF7BABD0000024A00201107FDF7DD
:1029C00023BE000001FDFFFF02E008C8121F08C17E
:1029D000002AFAD170477047002001E001C1121FA0
:1029E000002AFBD1704700000149086070470000D1
:1029F0007800002000B5244B21F0004287B09A42B5
:102A0000DCBF0022134629DD204B9A4208D140B991
:102A10004FF00100FFF7E8FFFFF7C7FF07B000BD69
:102A200003DBFFF7BFFF07B000BD02AAFFF7ACFC56
:102A300010F0030104BF0DF1080C9CE80F000DD04D
:102A4000012001290ED0022914D00DF1080C0090AC
:102A50009CE80F00FFF730FF07B000BDFFF758FEFE
:102A600007B000BD0DF1080C00909CE80F00FFF7C7
:102A700023FF05E00DF1080C9CE80F00FFF748FE6E
:102A800007B081F0004100BDFB21E93F0000F07F6D
:102A90000848026B016A891A0164426B416A891A0B
:102AA0004164826B816A891A8164C26BC16A891A26
:102AB000C1647047000000200448016A0163416A54
:102AC0004163816A8163C16AC1637047000000206D
:102AD0002DE9F041164C206CFDF7ADFD154E164F5B
:102AE00032463B46FDF7AFFCFDF7C9FD134D2860AC
:102AF000606CFDF7A0FD32463B46FDF7A4FCFDF7F8
:102B0000BEFD6860A06CFDF796FD32463B46FDF7C2
:102B10009AFCFDF7B4FDA860E06CFDF78CFD324631
:102B20003B46FDF790FCFDF7AAFDE860BDE8F081AB
:102B300000000020F14FC2AF055BF83F8C00002081
:102B400070B50C4C0C4E31462068FDF765FB04F166
:102B50001005314628606068FDF75EFB686031460D
:102B6000A068FDF759FBA8603146E068FDF754FB0B
:102B7000E86070BD8C0000200000F0402DE9F05F9F
:102B8000594CA06AFDF757FDDFF86091DFF860A1AE
:102B90004A465346FDF757FCDFF858B100225B4622
:102BA000FDF7C3FC06460D46206AFDF744FD4A4684
:102BB0005346FDF748FC00225B46FDF7B6FC324663
:102BC0002B46FDF799FB4FF0FF384246FDF71CFD01
:102BD000FDF755FD06462065E06AFDF72CFD4A46E7
:102BE0005346FDF730FC00225B46FDF79EFC07468E
:102BF0000D46606AFDF71FFD4A465346FDF723FC6C
:102C000000225B46FDF791FC3A462B46FDF774FB2C
:102C10004246FDF7F9FCFDF732FD01466065FDF720
:102C2000FBFA054631460846FDF7F6FA2946FDF758
:102C30009BFAFDF711FD00F085F9FDF720FDE06539
:102C4000D4E91401FDF790FA2B49FDF717FBA065B5
:102C5000FDF702FD00F026F906460D46606DFDF712
:102C6000FBFC32462B46FDF7EEFB06468846A06D80
:102C7000FDF7F2FCFFF7BEFE07460D46206DFDF79F
:102C8000EBFC3A462B46FDF7DEFB32464346FDF7AA
:102C900033FBFDF7F4FC2066A06DFDF7DDFC00F0D2
:102CA00001F906460D46206DFDF7D6FC32462B464F
:102CB000FDF7C9FB06460F46A06DFDF7CDFCFFF7FB
:102CC00099FE05468846606DFDF7C6FC2A464346D8
:102CD000FDF7B9FB32463B46FDF7AFFBFDF7CFFCF6
:102CE0006066BDE8F09F000000000020A2478C9EB7
:102CF000DB8F47400020814000005A422DE9F0411F
:102D0000164C206CFDF797FC154E164F32463B468D
:102D1000FDF799FBFDF7B3FC134D2860606CFDF7E0
:102D20008AFC32463B46FDF78EFBFDF7A8FC686047
:102D3000A06CFDF780FC32463B46FDF784FBFDF7B7
:102D40009EFCA860E06CFDF776FC32463B46FDF742
:102D50007AFBFDF794FCE860BDE8F08100000020FC
:102D60009EEFA7C64B5F4B407C00002013B50128A7
:102D700007D002280AD003280ED1012201A9074852
:102D800008E00648012201A9803803E00348012237
:102D900001A94038FEF72EFF1CBD0000BC01002039
:102DA000FEF73CF8FFF747F8FEF746FFFEF7FEFF99
:102DB000384D3748002428604FF41650C5E9010407
:102DC0004FF00C08EC60C5E90448AC612846EC61A2
:102DD000FEF71AFE05F140062F4830604FF4E13946
:102DE000C6E90194F460C6E90448B4613046F46170
:102DF000FEF70AFEFEF7B2FF05F1800727483860AC
:102E0000C7E90194FC60C7E90448BC613846FC612D
:102E1000FEF7FAFD2868C16841F02001C160306802
:102E2000C16841F02001C1603868C16841F02001EB
:102E3000C1601B4C0B2500BFFDF7E2FFB0FBF5F1B5
:102E400005FB1100E0610B28F6D2DFE800F0060771
:102E5000060A0D06160619061C00EDE7FFF72CFE04
:102E6000EAE7FFF715FEE7E7FFF748FFFFF786FE03
:102E7000FFF72EFEFFF764FEDEE72178012004E075
:102E80002178022001E021780320FFF76FFFD3E7CC
:102E9000003801403C010020004400400048004050
:102EA0000000002000B5254B21F0004287B09A4277
:102EB00003DC0022134600922BE0214B9A4208D1FA
:102EC00040B94FF00100FFF78FFDFFF76EFD07B02F
:102ED00000BD03DBFFF766FD07B000BD02AAFFF7E8
:102EE00053FA10F003014FF001000DD0012914D066
:102EF00002291AD00DF1080C9CE80F00FFF708FC1E
:102F000007B081F0004100BD0DF1080C00909CE875
:102F10000F00FFF7D1FC07B000BD0DF1080C9CE8D5
:102F20000F00FFF7F5FB07B000BD0DF1080C009096
:102F30009CE80F00FFF7C0FCE2E70000FB21E93F3F
:102F40000000F07F2DE9F04106460F46FDF768FCD2
:102F5000041E0D4618BF0120284320F00040C0F198
:102F60007F6000F1E040C00F0ED0301C18BF012080
:102F7000384320F00040C0F17F6000F1E040C00F16
:102F800004BF0120FFF730FD20462946BDE8F0814F
:102F900030B5124A1068C0F300311148417212680E
:102FA000C2F340328272837891EA0305C572437896
:102FB00082EA03040B4B047305D0056A6D1E05629B
:102FC0001D686D1C1D602CB1046A641C04621C68C1
:102FD000641C1C604170827030BD0000080C014010
:102FE00000000020AC00002030B5124A1068C0F389
:102FF0008031114841731268C2F3C0328273037981
:1030000091EA0305C573C37882EA03040B4B047489
:1030100005D0456A6D1E45625D686D1C5D602CB112
:10302000446A641C44625C68641C5C60C170027128
:1030300030BD0000080C014000000020AC00002062
:1030400030B5124A1068C0F340011148417412684B
:1030500002F001048474827991EA0205C574837BCD
:10306000427983EA02030B4A037505D0856A6D1E17
:10307000856295686D1C95602BB1836A5B1C8362C9
:1030800053685B1C53604171847130BD0808014076
:1030900000000020AC00002030B5124A1068C0F3D8
:1030A0004011114841751268C2F300128275037A0B
:1030B00091EA0305C575C37982EA03040B4B0476D4
:1030C00005D0C56A6D1EC562DD686D1CDD602CB162
:1030D000C46A641CC462DC68641CDC60C171027276
:1030E00030BD0000080C014000000020AC000020B2
:1030F00000000000000000000102030406070809A8
:1031000000000000010203044C5555555555A53FDC
:103110007751C1166CC156BF9015CB19A001FA3E6C
:10312000AD529C804F7E92BEC4B1B4BD9EEE213E96
:10313000D43888BEE9FAA8BD00004054FB21F93F0D
:103140003163621A61B4D03D0000601A61B4D03DB1
:103150007370032E8A19A33B0000002E8A19A33B2B
:10316000C14920259A837B3900000000000000003F
:103170006E83F9A22915444ED15727FCC0DD34F5E2
:10318000999562DB4190433CAB6351FE61C5BBDE68
:103190003A6E24B7E0D24D42EA2E49061C92D1097C
:1031A0001CEB1DFE3EA729B1F53582E88444BB2EF9
:1031B00026709CE9417E5FB439D69139F439538346
:1031C0008B5F849C3B28F9BDFF97F81F0F9805DEA5
:1031D0008B112FEF1F6D0A5ACF7E366DB709CB27A3
:1031E000663F464F2DEA5F9EC7BA27757BF1E5EB38
:1031F000F739073DEA92528AB15FFB6B085D8D1F7C
:10320000A6F810111111813FD561C119A0012ABF83
:103210007DFEB157E31DC73EEB9C2B8AE6E55ABE07
:103220007CD5CF5A3AD9E53D48320008000000204D
:103230007C000000C8290008C43200087C0000207F
:10324000A4050000D82900080000000000000000CC
:10325000000000000000000000000000000000006E
:10326000000000000000000000000000000000005E
:10327000000000000000000000000000000000004E
:10328000000000000000000000000000000000003E
:10329000000000000000000000000000000000002E
:1032A000000000000000000000000000000000001E
:1032B0000100000010000000000000000024F400E5
:0432C000000000000A
:04000005080000ED02
:00000001FF
