:020000040800F2
:10000000F0050020010100083B1600084714000815
:10001000391600086D0100084D1B000800000000A3
:100020000000000000000000000000004116000871
:100030006F010008000000003D160008431600088C
:100040001B0100081B0100081B0100081B01000820
:10005000DF0100083F16000871010008AF01000829
:100060001B0100081B010008BF0100081B0100085C
:100070001B0100081B0100081B0100081B010008F0
:100080001B0100081B0100081B0100081B010008E0
:100090001B0100081B0100081B010008CF0100081C
:1000A0001B0100081B0100081B0100081B010008C0
:1000B000DD1600081B010008E91600081B010008F6
:1000C0001B0100081B0100081B0100081B010008A0
:1000D0001B010008ED1A00080D1B00082D1B00086D
:1000E000810100081B0100081B010008DFF80CD08B
:1000F00000F02AF8004800478D1B0008F00500209A
:100100000648804706480047FEE7FEE7FEE7FEE7B1
:10011000FEE7FEE7FEE7FEE7FEE7FEE795160008CE
:10012000ED000008D2B201E000F8012B491EFBD21D
:1001300070470022F6E710B513460A4604461946F2
:10014000FFF7F0FF204610BD064C074D06E0E068C3
:1001500040F0010394E8070098471034AC42F6D30E
:10016000FFF7C8FFCC1D0008EC1D0008FEE7704734
:1001700010B5012000F06AF9BDE8104001F0D4BDCF
:1001800010B54FF4805000F061F94FF4005000F0CA
:100190005DF94FF4804000F059F94FF4004000F051
:1001A00055F901F07DFDBDE8104001F09BBD10B593
:1001B000022000F04BF9BDE8104001F0B5BD10B5CC
:1001C000102000F043F9BDE8104001F0D1BD10B59A
:1001D000202000F03BF9BDE8104001F0C9BD00F05F
:1001E000AFB80000064A0021D16106490A6942F011
:1001F00002020A614861086940F0400008617047E6
:10020000D001002000200240044B0022DA61044AA1
:10021000136943F00103136101807047D00100208E
:100220000020024014480022C168CB06134904D5BF
:10023000CA6942F00202CA611022C3685B0705D591
:10024000CB6943F00103CB6142F00402C369DB07D1
:1002500007D0CB6943F00403CB61C16921F00101F0
:10026000C161A2F58071013901D0C2607047C169D6
:1002700021F00101C161704700200240D00100203F
:1002800010B590F821100024022903D004218163C5
:1002900001243DE001680A6822F00E020A6001684C
:1002A0000A6822F001020A601A4A0168914201D1EB
:1002B000012121E0174A1432914201D110211BE0A3
:1002C000144A2832914201D1891515E0114A3C3275
:1002D000914201D189140FE00E4A5032914202D16D
:1002E0004FF4803108E00B4A6432914202D14FF45E
:1002F000801101E04FF08071064A083A51600121F7
:1003000080F82110002180F82010416B01B188474E
:10031000204610BD0800024070B5044600F098F970
:100320000546601C02D004480078044400F090F9AF
:10033000401BA042FAD370BD6C0000207047000043
:100340002DE9F0413E4DE8683E4CC0064FF0FF37C6
:100350004FF0000602D4E868400708D5D4F80880BA
:10036000A760FFF75FFF404600F06EF82670E86870
:10037000800653D52020E8602078F8B12078012845
:100380001DD02078022833D06068401E606060680D
:10039000B0B3A068801CA060A06821696269090CE4
:1003A00041EA0241120C21616261296921F00101D7
:1003B00029612169626989B2FFF726FF2EE0606832
:1003C000401E6060606868B1A068FFF7B7FFA06872
:1003D00000F58060A060296921F002012961FFF722
:1003E00001FF1BE03846A7602670FFF7A7FF15E066
:1003F000286920F0040028610020FFF79FFF0CE02F
:10040000FFE72078032817D020780428A06815D0AB
:10041000B0F10600FFF792FFA76026702078002851
:1004200008D1286920F007002861286920F4A0502D
:1004300028612676BDE8F081A068EBE7801EE9E739
:1004400000200240D001002070477047044910B5D9
:100450000A68024202D00860FFF7F7FF10BD0000F3
:10046000140401402DE9F84FDFF8B891002409F198
:10047000040A0AF1040B23460F270BF1040EC9E00E
:100480000125A5402A40AA427DD1674ED1F804C07B
:10049000ACEB0608B44532D014DCBCF1030F3AD003
:1004A00009DCBCF1000F2AD0BCF1010F1CD0BCF15B
:1004B000020F31D11DE0BCF1110F17D0BCF1120FAA
:1004C0002AD119E0B8F5881F19D006DCB8F5803FAD
:1004D00015D0B8F5801F1FD111E0B8F5001F0ED060
:1004E000B8F5041F18D10AE0CB6815E0CB681B1DD6
:1004F00012E0CB6808330FE0CB680C330CE08B685C
:100500002BB1012B4FF0080303D0456104E0042315
:1005100002E0056100E00023FF2A01D8064601E061
:1005200000F104064FEA840501D9A5F12005D6F8AB
:10053000008007FA05FC28EA0C0803FA05F548EAEA
:100540000508C6F800804D68ED0062D5374DAE69EC
:1005500046F00106AE61AD6924F0030605F0010521
:100560000095334D06EB050CDCF80850A607360F56
:1005700007FA06F825EA0805DFF8B880404503D1F8
:100580004FF0000817E044E0DFF8AC80404502D1AE
:100590004FF001080FE0DFF8A480404502D14FF092
:1005A000020808E0DFF89880404502D14FF00308C8
:1005B00001E04FF0040808FA06F848EA0508CCF80C
:1005C00008804D68D9F80060ED034D4601D516430B
:1005D00000E096432E604D68DAF80060AD035546A2
:1005E00001D5164300E096432E604D68DBF80060AD
:1005F000ED025D4601D5164300E096432E604D683E
:10060000DEF80060AD02754601D5164300E0964362
:100610002E60641C0D682A46E5407FF431AFBDE8CA
:10062000F88F00000004014000001110001002408B
:100630000000014000080140000C01400010014092
:10064000001401400AB1016170470904FBE7000092
:1006500001488068704700006C00002002488168F3
:1006600002781144816070476C000020074810B583
:10067000016841F010010160032000F085F80020BE
:1006800000F006F800F024F8002010BD0020024021
:1006900070B50D4D04464FF47A712878B1FBF0F037
:1006A0000A490968B1FBF0F000F0FCFA48B9102CD7
:1006B00007D200222146501E00F046F800206C6050
:1006C00070BD012070BD00006C000020780000208B
:1006D000144808B5816941F001018161816901F027
:1006E00001010091C16941F08051C161C0690022DE
:1006F00000F0805000901146042000F025F80420FE
:1007000000F014F800221146052000F01DF8052025
:1007100000F00CF80448416821F0E06141F00071FC
:10072000416008BD0010024000000140002809DBC4
:1007300000F01F02012191404009800000F1E020FB
:10074000C0F8001170470000F0B40E4B1B680C4657
:10075000C3F30223C3F10705042D00D90425191D95
:10076000072901D2002300E0DB1E012606FA05F16D
:10077000491E214099409E40761E16403143F0BCF0
:1007800001F0E5B90CED00E0064900F00702086849
:100790004FF6FF03184040EA0220034A1043086066
:1007A000704700000CED00E00000FA052DE9F0476D
:1007B0000F46050061D0434E306800F00700B84294
:1007C00009D2306820F0070038433060306800F00C
:1007D0000700B84251D128683B4C810712D5400729
:1007E00003D5606840F4E06060602878000703D5B6
:1007F000606840F4605060606068A96820F0F000B4
:10080000084360602878C00728D06868012810D0A5
:100810002168022810D0890700292EDA616821F0AA
:10082000030101436160FFF713FF804641F28839FD
:100830000DE021688903EFE78901EDE7FFF708FF85
:10084000A0EB0801494502D90320BDE8F0876068A4
:10085000696800F00C00B0EB810FEFD1306800F058
:100860000700B8420BD9306820F0070038433060E9
:10087000306800F00700B84201D00120E5E7287891
:10088000400705D56068E96820F4E06008436060CF
:100890002878000706D56068296920F4605040EA8E
:1008A000C100606000F038F86168084AC1F30311C4
:1008B000515CC8400649086006480068FFF7E8FE3A
:1008C0000020C2E70020024000100240B41D0008D2
:1008D000780000207000002004480549006849683D
:1008E000044AC1F30221515CC840704778000020DF
:1008F00000100240C41D000804480549006849680A
:10090000044AC1F3C221515CC840704778000020FE
:1009100000100240C41D000812A185B00FC98DE867
:100920000F0014A0144A006804905168134801F0A5
:100930000C03042B10D0082B0ED1C1F38343C90341
:100940001DF803000AD5516804AAC1F34041515C67
:100950000A4A5043B0FBF1F005B0704708494843DC
:10096000FAE7000002030405060708090A0B0C0D4C
:100970000E0F1010010200000010024000127A0059
:1009800000093D002DE9F84F040070D02078C04DDB
:10099000C00749D06868C0F38100012807D06868A3
:1009A000C0F38100022809D16868C00306D5286811
:1009B000800339D560680028E7D035E06068B0F57D
:1009C000803F0BD010B1B0F5A02F11D0286820F4D3
:1009D00080302860286820F4802002E0286840F4F5
:1009E00080302860606890B1FFF732FE06460AE06A
:1009F000286840F480202860F0E700BFFFF728FE59
:100A0000801B642873D828688003F7D50CE0FFF7B3
:100A10001FFE064605E000BFFFF71AFE801B642894
:100A2000F0D828688003F7D420789A4E80074FF0DA
:100A300001094FF0000839D5686810F00C0F07D095
:100A40006868C0F38100022809D16868C00306D431
:100A50002868800714D52069012808D110E0206992
:100A6000B0B1C6F80090FFF7F3FD074605E00AE1D4
:100A7000FFF7EEFDC01B0228C4D828688007F7D511
:100A80002868616920F0F80040EAC10028600DE0A4
:100A9000C6F80080FFF7DCFD074604E0FFF7D8FD4D
:100AA000C01B022823D828688007F7D420780007C5
:100AB0002CD57948A169D9B1C0F80090FFF7C8FDDD
:100AC000074604E0FFF7C4FDC01B02280FD8686A80
:100AD0008007F7D571484FF4FA510068B0FBF1F088
:100AE000009000BF0098411E0091FAD20EE080E015
:100AF000C0F80080FFF7ACFD074604E0FFF7A8FD53
:100B0000C01B022875D8686A8007F7D42078400790
:100B100060D5E8690027C00008D4E86940F080503B
:100B2000E861E869012700F0805000905C480168A6
:100B3000C90513D40168834641F480710160FFF751
:100B400087FD824606E000BFFFF782FDA0EB0A00AA
:100B500064284ED8DBF80000C005F5D5E068012810
:100B60000AD008B1052813D0286A20F001002862B5
:100B7000286A20F0040002E0286A40F001002862A0
:100B8000E06841F2883B98B1FFF762FD82460BE0D6
:100B9000286A40F004002862EEE700BFFFF758FD26
:100BA000A0EB0A0159455AD8286A8007F6D50CE00F
:100BB000FFF74EFD824605E0FFF74AFDA0EB0A0174
:100BC00059454CD8286A8007F6D41FB1E86920F04F
:100BD0008050E861E06988B36968C1F38101022946
:100BE00044D00228C6F8608004D0FFF731FD0446E7
:100BF00038E034E0FFF72CFD074604E0FFF728FD5E
:100C0000C01B02282BD828688001F7D4206AB0F5D1
:100C1000803F05D16868A16820F40030084368600F
:100C2000D4E908010843696821F474110843686035
:100C3000C6F86090FFF70CFD044606E025E000BF13
:100C4000FFF706FD001B022809D828688001F7D5A8
:100C50001BE000BFFFF7FCFC001B022802D90320A9
:100C6000BDE8F88F28688001F4D40EE00128F7D0A1
:100C70006868226A00F48031914204D1616A00F40C
:100C80007010884201D00120EAE70020E8E7000068
:100C900000100240000042428004424278000020DE
:100CA0000070004010B5401EB0F1807F01D30120DC
:100CB00010BD4FF0E02460610F21601700F047FF86
:100CC0000020A06107202061002010BD7047704700
:100CD00070B590F83C20012A19D0012400F83C4F4F
:100CE0000222427050F83C3C5A689D6822F070061F
:100CF0000A684968324325F0800529435A6050F854
:100D00003C2C9160447000210170084670BD0220A7
:100D100070BD10B5040003D094F83D0010B107E099
:100D2000012010BD002084F83C00204600F00CF8A3
:100D3000022084F83D00211D206800F0DBFC01202A
:100D400084F83D00002010BD08B501681448B1F1D9
:100D5000804F14D0134A914220D1C16941F004015F
:100D6000C161C069002200F00400009011461E20FD
:100D7000FFF7EAFC1E20BDE80840FFF7D7BCC169B9
:100D800041F00101C161C069002200F00100009042
:100D900011461C20FFF7D8FC1C20ECE708BD000022
:100DA000001002400008004070B5044690F83C0076
:100DB000012817D0012584F83C50022084F83D001A
:100DC0002068826822F0770222F47F4282600868FD
:100DD000502830D00DDC20284DD005DC98B31028E9
:100DE0003BD148E0022070BD302844D0402834D1A7
:100DF00039E0602828D0702806D0B0F5805F2CD06C
:100E0000B0F5005F29D10AE0CB68D1E90121206863
:100E100000F0A6FC2068816841F0770109E0CB680A
:100E2000D1E90121206800F09BFC2068816841F431
:100E30008041816011E0CA684968206800F044FD83
:100E40005021206807E016E0CA684968206800F071
:100E50004CFD6021206800F08DFC84F83D5000209E
:100E600084F83C0070BDCA684968206800F02CFD19
:100E700040212068EFE7226801461046EBE7704703
:100E800070B50446006801694FF00005C943890741
:100E900015D4C168C943890711D4E91E0161012035
:100EA0002077206880698007204602D0FFF7E7FF9F
:100EB00004E000F0BFF8204600F041F925772068F3
:100EC0000169C943490717D4C168C943490713D405
:100ED0006FF004010161022020772068806910F41E
:100EE000407F204602D0FFF7CAFF04E000F0A2F8DE
:100EF000204600F024F9257720680169C9430907D5
:100F000016D4C168C943090712D46FF00801016102
:100F1000042020772068C0698007204602D0FFF7B0
:100F2000AEFF04E000F086F8204600F008F92577CF
:100F300020680169C943C90617D4C168C943C906F5
:100F400013D46FF010010161082020772068C06978
:100F500010F4407F204602D0FFF791FF04E000F03C
:100F600069F8204600F0EBF8257720680169C9434D
:100F7000C90708D1C168C943C90704D1891E0161E5
:100F8000204600F0DDF820680169C943090609D44C
:100F9000C168C943090605D46FF08001016120468C
:100FA000FFF794FE20680169C943490609D4C16866
:100FB000C943490605D46FF040010161204600F0A5
:100FC000C0F820680169C94389060BD4C168C943C8
:100FD000890607D46FF0200101612046BDE870400A
:100FE000FFF775BE70BD000000B585B0002100910F
:100FF00001910291039100680B49884211D10B487D
:10100000816941F0080181618069694600F008004A
:101010000490402000900220019003900448FFF7C4
:1010200021FA05B000BD0000000800400010024099
:10103000000C0140704770B5044690F83C000D4626
:1010400001280DD0012684F83C60022084F83D0080
:1010500042B1042A18D0082A2AD00C2A4DD139E0EE
:10106000022070BD206800F08DFB2068816941F08E
:10107000080181612068816921F004018161206893
:1010800081692A69114311E0206800F0A3FB206800
:10109000816941F4006181612068816921F4806186
:1010A0008161206881692A6941EA0221816124E025
:1010B000206800F0BBFB2068C16941F00801C161F4
:1010C0002068C16921F00401C1612068C1692A69F1
:1010D000114311E0206800F0D5FB2068C16941F49C
:1010E0000061C1612068C16921F48061C16120682B
:1010F000C1692A6941EA0221C16184F83D6000208A
:1011000084F83C0070BD10B5040003D094F83D0095
:1011100010B107E0012010BD002084F83C002046FB
:1011200000F00CF8022084F83D00211D206800F03A
:10113000E1FA012084F83D00002010BD704770479F
:10114000704770477047000070B502680446106829
:10115000D168536910F00F0F50D003F0010501F46E
:10116000907635435DD0C20705D0CA0503D5E26B42
:1011700042F00102E263420705D5DA0703D0E26BD1
:1011800042F00202E263820705D5DA0703D0E26B80
:1011900042F00402E263020705D5DA0703D0E26BEE
:1011A00042F00802E263E26B002A33D0800604D5E5
:1011B000880602D5204600F0C0FB20684069E16B3C
:1011C000C0F38010090700D428B3204600F0A7FB25
:1011D0002068416949061AD5416921F04001416101
:1011E000606BA0B11B494163606BFFF749F80028B1
:1011F00010D0606B416BBDE870400847830610D586
:101200008B060ED52046BDE8704000F096BB204608
:10121000FFF798FF70BD2046FFF794FF0020E063C2
:1012200070BD030606D50B0604D52046BDE8704008
:1012300000F02ABC4006F3D54806F1D5D168204617
:1012400021F04001D160202184F8391000F0FAF833
:1012500070BD00000F19000870B5040004D094F8A8
:101260003900002510B106E0012070BD84F8385027
:10127000204600F023F8242084F839002068C16853
:1012800021F40051C160204600F0A2FB20680169F2
:1012900021F4904101612068416921F02A014161F6
:1012A0002068C16841F40051C160E563202084F8E2
:1012B000390084F83A00002070BD0000F0B585B018
:1012C000002400940194029403940368424F022086
:1012D00042490322424D4602BB4225D18B6943F469
:1012E00080438B618B6903F4804304938B6943F0E3
:1012F00004038B618969039201F0040104910102E6
:10130000CDE9001069462846FFF7ACF8CDE9006446
:10131000694628460294FFF7A5F8002211462520C9
:10132000FFF712FA252028E02E4FBB4229D1CB69C6
:1013300043F40033CB61CB6903F4003304938B692E
:1013400043F004038B618969039201F00401049165
:101350000421CDE9001069462846FFF783F80820EC
:10136000CDE90004694628460294FFF77BF8002285
:1013700011462620FFF7E8F92620FFF7D7F905B038
:10138000F0BD194DAB42FAD1CB6943F48023CB6158
:10139000CB6903F4802304938B6943F008038B61CA
:1013A0008969124D01F00801CDE90321CDE9006002
:1013B00069462846FFF756F8E814CDE90004694667
:1013C00028460294FFF74EF8002211462720FFF727
:1013D000BBF92720D1E7000000380140001002408F
:1013E000000801400044004000480040000C01405B
:1013F00090F83A30202B22D1F9B1F2B190F8383080
:10140000012B1CD081628285C2850021C16322220A
:1014100080F83A2080F838100168CA6842F4807277
:10142000CA6001684A6942F001024A610068C16805
:1014300041F02001C1600020704701207047022068
:10144000704770477047FEE72DE9F04186B00024F1
:1014500041480094019402940394816941F0100181
:101460008161816901F010010491816941F02001DD
:101470008161816901F020010491816941F00401D9
:101480008161816901F004010491816941F00801E1
:1014900081618069314F00F008004FF400550490DD
:1014A000002229463846FFF7CDF8DFF8B480002245
:1014B00080214046FFF7C6F80095022601250396D5
:1014C000CDE9015469463846FEF7CCFF254F03208D
:1014D000CDE90007694602942348FEF7C3FF4FF2A7
:1014E0003000CDE90007694602944046FEF7BAFF96
:1014F0008020CDE90005CDE9024669464046FEF769
:10150000B1FF002211460620FFF71EF90620FFF763
:101510000DF9002211460720FFF716F90720FFF703
:1015200005F9002211460A20FFF70EF90A20FFF7FD
:10153000FDF8002211461720FFF706F91720FFF7E4
:10154000F5F8002211462820FFF7FEF82820FFF7C3
:10155000EDF806B0BDE8F081001002400010014037
:10156000000C0140000031100008014010B586B0A9
:1015700000241148009401940294039404944FF0C1
:101580008041059401604721C0E9011440F2E73130
:10159000C0E903148461FFF7BCFB4FF48050009056
:1015A00069460548FFF700FC049404A90248059425
:1015B000FFF78EFB06B010BD8C00002010B58EB07A
:1015C00000240794089409940A940B941C216846FB
:1015D0000C94FEF7AEFD17481549016041F61F4116
:1015E000C0E90114C721C0E903148461FFF791FB2E
:1015F0004FF48050079007A90E48FFF7D5FB0D4820
:10160000FFF781FD0B940BA90A480C94FFF760FBD0
:101610006020CDE900040294002269460548049444
:10162000FFF709FD0348FFF7DFFC0EB010BD000017
:1016300000080040CC000020FEE77047704770476C
:101640007047FFF70BB830B58FB028216846FEF71A
:1016500070FD14210AA8FEF76CFD01210804CDE9F4
:1016600000100024029402250491CDE907504FF4A4
:10167000E01009906846FFF785F90F20CDE90A05CB
:101680006802CDE90C4002210AA80E94FFF78EF8FB
:101690000FB030BD0D48016841F0010101604168A3
:1016A0000B4A1140416001680A4A1140016001681B
:1016B00021F480210160416821F4FE0141604FF472
:1016C0001F0181600449C003086070470010024098
:1016D0000000FFF8FFFFF6FE08ED00E00148FFF70D
:1016E000CFBB00008C0000200148FFF7C9BB000001
:1016F000CC000020F0B50268164B174C174D4FF088
:101700008047984205D0B84203D0A04201D0A842F9
:1017100003D122F070064A683243984205D0B8429D
:1017200003D0A04201D0A84203D122F44074CA6879
:1017300022434C6922F08002224302608A68C2621E
:101740000A688262984201D10969016301214161FD
:10175000F0BD0000002C01400004004000080040E3
:1017600010B5846842EA032224F47F440A432243EA
:10177000826010BD826822F070020A4342F00701C5
:101780008160704730B5026A22F001020262026A8B
:101790004368846924F073050C682C4322F0020529
:1017A0008A682A430A4DA8420BD122F00805CA686C
:1017B00023F440732A434D6922F004021D438B69D0
:1017C0002B434360846149684163026230BD00007D
:1017D000002C014030B5026A22F010020262026A57
:1017E000436884690D6824F4E64444EA05248D685E
:1017F00022F0200242EA05120B4DA8420ED1CD681C
:1018000022F0800242EA05124D6923F4406343EA64
:1018100085038D6922F0400243EA850343608461B9
:1018200049688163026230BD002C014030B5026A14
:1018300022F480720262036A4268C46923F400736E
:1018400024F073050C682C438D6843EA05230C4D86
:10185000A8420ED1CD6823F4006343EA05234D6905
:1018600022F4405242EA05128D6923F4806342EA71
:1018700005124260C4614968C163036230BD000063
:10188000002C014030B5026A22F480520262046AE0
:101890004268C3690D6823F4E64343EA05238D6873
:1018A00024F4005444EA0534064DA84204D14D699D
:1018B00022F4804242EA85124260C36149680164B1
:1018C000046230BD002C014010B5036A046A24F0A4
:1018D00001040462846924F0F00444EA021423F051
:1018E0000A020A438461026210BD10B5036A23F044
:1018F000100303628369046A23F4704343EA0232EB
:1019000024F0A00343EA01118261016210BD10B509
:10191000406A0021C185C184FFF714FC10BD016835
:10192000CA6822F49072CA6001684A6922F0010212
:101930004A61202180F83A10704710B590F83A10AB
:10194000222901D0022010BD8168B1F5805F11D03D
:101950000169002901681FD0496801F07F03816A8D
:101960004A1C82620B70C18D491E0904090CC18595
:1019700018D02BE00269816A002A0268526805D0FB
:10198000D2B20A80816A491C8162ECE7C2F3080284
:101990000A80816A891CF7E74A68816A4B1C836266
:1019A0000A70E0E70168CA6822F02002CA60016894
:1019B000CA6822F48072CA6001684A6922F0010292
:1019C0004A61202180F83A10FFF73BFD002010BD4E
:1019D0002DE9F041044600680169E26821F44051B4
:1019E000114301612169A0680843616908432168C6
:1019F000CA6841F20C639A430243CA602068416995
:101A0000A26921F44071114341611E492068642597
:101A10003226884202D1FEF76FFF01E0FEF75CFF3D
:101A200000EBC00101EB001160686FF01807800047
:101A3000B1FBF0F2B2FBF5F2B1FBF0F37A4303EB4A
:101A40008202B1FBF0F306EB0212B2FBF5F2B3FB3C
:101A5000F5F302F0F00202EB0312B1FBF0F3B1FB7D
:101A6000F0F0B0FBF5F0784303EB800006EB0010DC
:101A7000B0FBF5F0216800F00F0010448860BDE86D
:101A8000F08100000038014090F83910212901D080
:101A9000022070478168B1F5805F016A0BD04A1C53
:101AA0000262026809785160C18C491E0904090C60
:101AB000C1840ED017E009880268C1F308015160A3
:101AC00001690029016A02D0491C0162ECE7891C06
:101AD000FBE70168CA6822F08002CA600068C1683A
:101AE00041F04001C16000207047000010B505487A
:101AF000FFF72AFBBDE81040012203490148FFF728
:101B000077BC00000C0100201900002010B505482A
:101B1000FFF71AFBBDE81040012203490148FFF717
:101B200067BC00004C0100201A00002010B50548D9
:101B3000FFF70AFB03480122BDE81040024940308C
:101B4000FFF756BC4C0100201B000020FEE70907F0
:101B5000090E002804DB00F1E02080F80014704733
:101B600000F00F0000F1E02080F8141D704702E043
:101B700008C8121F08C1002AFAD170477047002018
:101B800001E001C1121F002AFBD17047FEF76EFD74
:101B9000FFF759FDFFF758FCFFF710FD284D2748C8
:101BA000002428604FF41650C5E901044FF00C08DA
:101BB000EC60C5E90448AC612846EC61FFF74CFBDA
:101BC00005F140061F4830604FF4E139C6E9019441
:101BD000F460C6E90448B4613046F461FFF73CFBA9
:101BE000FFF7C4FC05F1800717483860C7E9019486
:101BF000FC60C7E90448BC613846FC61FFF72CFB78
:101C00002868C16841F02001C1603068C16841F0B6
:101C10002001C1603868C16841F02001C1600B4DEE
:101C20002878401CC0B228707D2800D12C7001207B
:101C3000FEF772FB642000F00BF8F1E7003801407A
:101C40000C0100200044004000480040000000203B
:101C500070B5041E10484FF4005102DA64420122AC
:101C600001E002DD0022FEF7EDFC01250B4E10E045
:101C7000012280213046FEF7E5FC3220FEF74CFBC6
:101C8000002280213046FEF7DDFC3220FEF744FBC7
:101C90006D1CA542ECDD70BD00100140000C014040
:101CA0000E4A10B51068C0F300310D484172126839
:101CB000C2F34032827283784B40C372447882EA26
:101CC0000404047302D0436A5B1E436214B1436A86
:101CD0005B1C43624170827010BD0000080C014023
:101CE000000000200E4A10B51068C0F380310D4886
:101CF00041731268C2F3C032827303794B40C373DD
:101D0000C47882EA0404047402D0836A5B1E83628E
:101D100014B1836A5B1C8362C170027110BD000044
:101D2000080C01400000002030B50F490868C0F3DE
:101D300040020E484274096801F0010383748179FE
:101D400092EA0104C474817B457981EA0501017539
:101D500002D0C46A641EC46211B1C16A491CC16266
:101D60004271837130BD000008080140000000206E
:101D70000E4A10B51068C0F340110D484175126845
:101D8000C2F300128275037A4B40C375C47982EAAC
:101D90000404047602D0036B5B1E036314B1036B6F
:101DA0005B1C0363C171027210BD0000080C01408E
:101DB00000000020000000000000000001020304F9
:101DC000060708090000000001020304EC1D0008DA
:101DD000000000207C0000006E1B0008681E000848
:101DE0007C000020740500007E1B0008000000003D
:101DF00000000000000000000000000000000000E3
:101E000000000000000000000000000000000000D2
:101E100000000000000000000000000000000000C2
:101E200000000000000000000000000000000000B2
:101E300000000000000000000000000000000000A2
:101E40000000000000000000000000000000000092
:101E50000000000000000000010000001000000071
:081E6000000000000024F40062
:04000005080000ED02
:00000001FF
